{
  "contractName": "TicTacToe",
  "abi": [
    {
      "anonymous": false,
      "inputs": [
        {
          "indexed": false,
          "name": "gameId",
          "type": "uint256"
        },
        {
          "indexed": false,
          "name": "creator",
          "type": "address"
        }
      ],
      "name": "GameCreated",
      "type": "event"
    },
    {
      "anonymous": false,
      "inputs": [
        {
          "indexed": false,
          "name": "gameId",
          "type": "uint256"
        },
        {
          "indexed": false,
          "name": "player",
          "type": "address"
        },
        {
          "indexed": false,
          "name": "playerNumber",
          "type": "uint8"
        }
      ],
      "name": "PlayerJoinedGame",
      "type": "event"
    },
    {
      "anonymous": false,
      "inputs": [
        {
          "indexed": false,
          "name": "gameId",
          "type": "uint256"
        },
        {
          "indexed": false,
          "name": "player",
          "type": "address"
        },
        {
          "indexed": false,
          "name": "xCoordinate",
          "type": "uint256"
        },
        {
          "indexed": false,
          "name": "yCoordinate",
          "type": "uint256"
        }
      ],
      "name": "PlayerMadeMove",
      "type": "event"
    },
    {
      "anonymous": false,
      "inputs": [
        {
          "indexed": false,
          "name": "gameId",
          "type": "uint256"
        },
        {
          "indexed": false,
          "name": "winner",
          "type": "uint8"
        }
      ],
      "name": "GameOver",
      "type": "event"
    },
    {
      "anonymous": false,
      "inputs": [
        {
          "indexed": false,
          "name": "money",
          "type": "uint256"
        }
      ],
      "name": "SentMoney",
      "type": "event"
    },
    {
      "constant": false,
      "inputs": [],
      "name": "newGame",
      "outputs": [
        {
          "name": "gameId",
          "type": "uint256"
        }
      ],
      "payable": false,
      "stateMutability": "nonpayable",
      "type": "function"
    },
    {
      "constant": false,
      "inputs": [
        {
          "name": "_gameId",
          "type": "uint256"
        }
      ],
      "name": "joinGame",
      "outputs": [
        {
          "name": "success",
          "type": "bool"
        },
        {
          "name": "reason",
          "type": "string"
        }
      ],
      "payable": true,
      "stateMutability": "payable",
      "type": "function"
    },
    {
      "constant": false,
      "inputs": [
        {
          "name": "_gameId",
          "type": "uint256"
        },
        {
          "name": "_xCoordinate",
          "type": "uint256"
        },
        {
          "name": "_yCoordinate",
          "type": "uint256"
        }
      ],
      "name": "makeMove",
      "outputs": [
        {
          "name": "success",
          "type": "bool"
        },
        {
          "name": "reason",
          "type": "string"
        }
      ],
      "payable": true,
      "stateMutability": "payable",
      "type": "function"
    }
  ],
  "bytecode": "0x608060405234801561001057600080fd5b50611802806100206000396000f3fe6080604052600436106100345760003560e01c80637d03f5f314610039578063cfc2f5ff14610064578063efaa55a01461012a575b600080fd5b34801561004557600080fd5b5061004e6101dc565b6040518082815260200191505060405180910390f35b6100a46004803603606081101561007a57600080fd5b810190808035906020019092919080359060200190929190803590602001909291905050506103b6565b604051808315151515815260200180602001828103825283818151815260200191508051906020019080838360005b838110156100ee5780820151818401526020810190506100d3565b50505050905090810190601f16801561011b5780820380516001836020036101000a031916815260200191505b50935050505060405180910390f35b6101566004803603602081101561014057600080fd5b8101908080359060200190929190505050610929565b604051808315151515815260200180602001828103825283818151815260200191508051906020019080838360005b838110156101a0578082015181840152602081019050610185565b50505050905090810190601f1680156101cd5780820380516001836020036101000a031916815260200191505b50935050505060405180910390f35b60006101e661154a565b6001816060019060028111156101f857fe5b9081600281111561020557fe5b8152505060c88160a001818152505060016000815480929190600101919050555080600080600154815260200190815260200160002060008201518160000160006101000a81548173ffffffffffffffffffffffffffffffffffffffff021916908373ffffffffffffffffffffffffffffffffffffffff16021790555060208201518160010160006101000a81548173ffffffffffffffffffffffffffffffffffffffff021916908373ffffffffffffffffffffffffffffffffffffffff16021790555060408201518160010160146101000a81548160ff021916908360038111156102ed57fe5b021790555060608201518160010160156101000a81548160ff0219169083600281111561031657fe5b02179055506080820151816002019060036103329291906115c9565b5060a082015181600501559050507fc3e0f84839dc888c892a013d10c8f9d6dc05a21a879d0ce468ca558013e9121c60015433604051808381526020018273ffffffffffffffffffffffffffffffffffffffff1673ffffffffffffffffffffffffffffffffffffffff1681526020019250505060405180910390a160015491505090565b600060606001548511156104055760006040518060400160405280601481526020017f4e6f20737563682067616d65206578697374732e00000000000000000000000081525091509150610921565b600080600087815260200190815260200160002090506000600381111561042857fe5b8160010160149054906101000a900460ff16600381111561044557fe5b1461048c5760006040518060400160405280601b81526020017f5468652067616d652068617320616c726561647920656e6465642e00000000008152509250925050610921565b61049581610cdf565b73ffffffffffffffffffffffffffffffffffffffff163373ffffffffffffffffffffffffffffffffffffffff16146105095760006040518060400160405280601481526020017f4974206973206e6f7420796f7572207475726e2e0000000000000000000000008152509250925050610921565b6000600281111561051657fe5b81600201866003811061052557fe5b01856003811061053157fe5b602091828204019190069054906101000a900460ff16600281111561055257fe5b1461057c57600060405180606001604052806031815260200161176d603191399250925050610921565b8060010160159054906101000a900460ff1681600201866003811061059d57fe5b0185600381106105a957fe5b602091828204019190066101000a81548160ff021916908360028111156105cc57fe5b02179055507faa03b0eb53c70f6640eba4234ad2c58782c8927e7abf7d3a6e2c45d07ca9d58386338787604051808581526020018473ffffffffffffffffffffffffffffffffffffffff1673ffffffffffffffffffffffffffffffffffffffff16815260200183815260200182815260200194505050505060405180910390a160006106f982600201600380602002604051908101604052809291906000905b828210156106f0578382016003806020026040519081016040528092919082600380156106dc576020028201916000905b82829054906101000a900460ff1660028111156106b657fe5b8152602001906001019060208260000104928301926001038202915080841161069d5790505b50505050508152602001906001019061066c565b50505050610da2565b90506000600381111561070857fe5b81600381111561071457fe5b146108d957808260010160146101000a81548160ff0219169083600381111561073957fe5b021790555060006001600381111561074d57fe5b82600381111561075957fe5b141561079d578260000160009054906101000a900473ffffffffffffffffffffffffffffffffffffffff1673ffffffffffffffffffffffffffffffffffffffff1690505b600260038111156107aa57fe5b8260038111156107b657fe5b14156107fa578260000160009054906101000a900473ffffffffffffffffffffffffffffffffffffffff1673ffffffffffffffffffffffffffffffffffffffff1690505b8073ffffffffffffffffffffffffffffffffffffffff166108fc84600501546002029081150290604051600060405180830381858888f19350505050158015610847573d6000803e3d6000fd5b507f132b564c6f96092065580fd28989d181dfbbfe4aa2fb7fb1eda8af68ba3073e088836040518083815260200182600381111561088157fe5b60ff1681526020019250505060405180910390a160016040518060400160405280601181526020017f5468652067616d65206973206f7665722e00000000000000000000000000000081525094509450505050610921565b6108e282610ed3565b60016040518060400160405280601181526020017f596f7572207475726e206973206f7665720000000000000000000000000000008152509350935050505b935093915050565b600060606000806000858152602001908152602001600020905060003390506001548511156109955760006040518060400160405280601481526020017f4e6f20737563682067616d65206578697374732e000000000000000000000000815250935093505050610cda565b81600501543410156109a657600080fd5b346002600082825401925050819055507f1e01c8d258ea60a59bd755ea561a66d21aa15e95a3380e3389ca549d8ccba43182600501546040518082815260200191505060405180910390a1600073ffffffffffffffffffffffffffffffffffffffff168260000160009054906101000a900473ffffffffffffffffffffffffffffffffffffffff1673ffffffffffffffffffffffffffffffffffffffff161415610b5557808260000160006101000a81548173ffffffffffffffffffffffffffffffffffffffff021916908373ffffffffffffffffffffffffffffffffffffffff1602179055507f8f5866c09e99941481e2be79d3a7698371543fe3ad3387b903553fd6043e8550858260016002811115610abd57fe5b604051808481526020018373ffffffffffffffffffffffffffffffffffffffff1673ffffffffffffffffffffffffffffffffffffffff1681526020018260ff1660ff168152602001935050505060405180910390a160016040518060400160405280601581526020017f4a6f696e656420617320706c61796572206f6e652e0000000000000000000000815250935093505050610cda565b600073ffffffffffffffffffffffffffffffffffffffff168260010160009054906101000a900473ffffffffffffffffffffffffffffffffffffffff1673ffffffffffffffffffffffffffffffffffffffff161415610c9b57808260010160006101000a81548173ffffffffffffffffffffffffffffffffffffffff021916908373ffffffffffffffffffffffffffffffffffffffff1602179055507f8f5866c09e99941481e2be79d3a7698371543fe3ad3387b903553fd6043e85508582600280811115610c2057fe5b604051808481526020018373ffffffffffffffffffffffffffffffffffffffff1673ffffffffffffffffffffffffffffffffffffffff1681526020018260ff1660ff168152602001935050505060405180910390a1600160405180606001604052806039815260200161179e60399139935093505050610cda565b60006040518060400160405280601081526020017f416c6c2073656174732074616b656e2e000000000000000000000000000000008152509350935050505b915091565b600060016002811115610cee57fe5b8260010160159054906101000a900460ff166002811115610d0b57fe5b1415610d3d578160000160009054906101000a900473ffffffffffffffffffffffffffffffffffffffff169050610d9d565b600280811115610d4957fe5b8260010160159054906101000a900460ff166002811115610d6657fe5b1415610d98578160010160009054906101000a900473ffffffffffffffffffffffffffffffffffffffff169050610d9d565b600090505b919050565b600080610dae83610f58565b905060006002811115610dbd57fe5b816002811115610dc957fe5b14610dfe5760016002811115610ddb57fe5b816002811115610de757fe5b14610df3576002610df6565b60015b915050610ece565b610e07836110c7565b905060006002811115610e1657fe5b816002811115610e2257fe5b14610e575760016002811115610e3457fe5b816002811115610e4057fe5b14610e4c576002610e4f565b60015b915050610ece565b610e6083611236565b905060006002811115610e6f57fe5b816002811115610e7b57fe5b14610eb05760016002811115610e8d57fe5b816002811115610e9957fe5b14610ea5576002610ea8565b60015b915050610ece565b610eb9836114ae565b15610ec8576003915050610ece565b60009150505b919050565b60016002811115610ee057fe5b8160010160159054906101000a900460ff166002811115610efd57fe5b1415610f2e5760028160010160156101000a81548160ff02191690836002811115610f2457fe5b0217905550610f55565b60018160010160156101000a81548160ff02191690836002811115610f4f57fe5b02179055505b50565b600080600090505b60038160ff1610156110bc57828160ff1660038110610f7b57fe5b6020020151600160038110610f8c57fe5b60200201516002811115610f9c57fe5b838260ff1660038110610fab57fe5b6020020151600060038110610fbc57fe5b60200201516002811115610fcc57fe5b1480156110365750828160ff1660038110610fe357fe5b6020020151600260038110610ff457fe5b6020020151600281111561100457fe5b838260ff166003811061101357fe5b602002015160016003811061102457fe5b6020020151600281111561103457fe5b145b801561107d57506000600281111561104a57fe5b838260ff166003811061105957fe5b602002015160006003811061106a57fe5b6020020151600281111561107a57fe5b14155b156110af57828160ff166003811061109157fe5b60200201516000600381106110a257fe5b60200201519150506110c2565b8080600101915050610f60565b50600090505b919050565b600080600090505b60038160ff16101561122b57826001600381106110e857fe5b60200201518160ff16600381106110fb57fe5b6020020151600281111561110b57fe5b8360006003811061111857fe5b60200201518260ff166003811061112b57fe5b6020020151600281111561113b57fe5b1480156111a557508260026003811061115057fe5b60200201518160ff166003811061116357fe5b6020020151600281111561117357fe5b8360016003811061118057fe5b60200201518260ff166003811061119357fe5b602002015160028111156111a357fe5b145b80156111ec5750600060028111156111b957fe5b836000600381106111c657fe5b60200201518260ff16600381106111d957fe5b602002015160028111156111e957fe5b14155b1561121e57826000600381106111fe57fe5b60200201518160ff166003811061121157fe5b6020020151915050611231565b80806001019150506110cf565b50600090505b919050565b60008160016003811061124557fe5b602002015160016003811061125657fe5b6020020151600281111561126657fe5b8260006003811061127357fe5b602002015160006003811061128457fe5b6020020151600281111561129457fe5b1480156112fa5750816002600381106112a957fe5b60200201516002600381106112ba57fe5b602002015160028111156112ca57fe5b826001600381106112d757fe5b60200201516001600381106112e857fe5b602002015160028111156112f857fe5b145b801561133f57506000600281111561130e57fe5b8260006003811061131b57fe5b602002015160006003811061132c57fe5b6020020151600281111561133c57fe5b14155b1561136e578160006003811061135157fe5b602002015160006003811061136257fe5b602002015190506114a9565b8160016003811061137b57fe5b602002015160016003811061138c57fe5b6020020151600281111561139c57fe5b826000600381106113a957fe5b60200201516002600381106113ba57fe5b602002015160028111156113ca57fe5b1480156114305750816002600381106113df57fe5b60200201516000600381106113f057fe5b6020020151600281111561140057fe5b8260016003811061140d57fe5b602002015160016003811061141e57fe5b6020020151600281111561142e57fe5b145b801561147557506000600281111561144457fe5b8260006003811061145157fe5b602002015160026003811061146257fe5b6020020151600281111561147257fe5b14155b156114a4578160006003811061148757fe5b602002015160026003811061149857fe5b602002015190506114a9565b600090505b919050565b600080600090505b60038160ff16101561153f5760008090505b60038160ff16101561153157600060028111156114e157fe5b848360ff16600381106114f057fe5b60200201518260ff166003811061150357fe5b6020020151600281111561151357fe5b141561152457600092505050611545565b80806001019150506114c8565b5080806001019150506114b6565b50600190505b919050565b604051806101c00160405280600073ffffffffffffffffffffffffffffffffffffffff168152602001600073ffffffffffffffffffffffffffffffffffffffff1681526020016000600381111561159d57fe5b8152602001600060028111156115af57fe5b81526020016115bc611617565b8152602001600081525090565b8260038101928215611606579160200282015b82811115611605578251829060036115f5929190611645565b50916020019190600101906115dc565b5b50905061161391906116e7565b5090565b6040518061012001604052806003905b61162f611713565b8152602001906001900390816116275790505090565b826003601f016020900481019282156116d65791602002820160005b838211156116a757835183826101000a81548160ff0219169083600281111561168657fe5b02179055509260200192600101602081600001049283019260010302611661565b80156116d45782816101000a81549060ff02191690556001016020816000010492830192600103026116a7565b505b5090506116e39190611735565b5090565b61171091905b8082111561170c57600081816117039190611765565b506001016116ed565b5090565b90565b6040518060600160405280600390602082028038833980820191505090505090565b61176291905b8082111561175e57600081816101000a81549060ff02191690555060010161173b565b5090565b90565b506000905556fe546865726520697320616c72656164792061206d61726b2061742074686520676976656e20636f6f7264696e617465732e4a6f696e656420617320706c617965722074776f2e20506c61796572206f6e652063616e206d616b6520746865206669727374206d6f76652ea165627a7a72305820290e4c7001938183ef0d776e074cde361a95725b07d8e7ac32cbdb64749f5ebd0029",
  "source": "pragma solidity >=0.4.21 <0.6.0;\n\n\n// TicTacToe is a solidity implementation of the tic tac toe game.\n// You can find the rules at https://en.wikipedia.org/wiki/Tic-tac-toe\ncontract TicTacToe {\n\n    // Players enumerates all possible players\n    enum Players { None, PlayerOne, PlayerTwo }\n    // Winners enumerates all possible winners\n    enum Winners { None, PlayerOne, PlayerTwo, Draw }\n\n    // Game stores the state of a round of tic tac toe.\n    // As long as `winner` is `None`, the game is not over.\n    // `playerTurn` defines who may go next.\n    // Player one must make the first move.\n    // The `board` has the size 3x3 and in each cell, a player\n    // can be listed. Initializes as `None` player, as that is the\n    // first element in the enumeration.\n    // That means that players are free to fill in any cell at the\n    // start of the game.\n    struct Game {\n        address playerOne;\n        address playerTwo;\n        Winners winner;\n        Players playerTurn;\n        Players[3][3] board;\n        uint256 threshold;\n    }\n\n    // games stores all the games.\n    // Games that are already over as well as games that are still running.\n    // It is possible to iterate over all games, as the keys of the mapping\n    // are known to be the integers from `1` to `nrOfGames`.\n     mapping(uint256 => Game) private games;\n    // nrOfGames stores the total number of games in this contract.\n    uint256 private nrOfGames;\n    uint256 private balance;\n\n    // GameCreated signals that `creator` created a new game with this `gameId`.\n    event GameCreated(uint256 gameId, address creator);\n    // PlayerJoinedGame signals that `player` joined the game with the id `gameId`.\n    // That player has the player number `playerNumber` in that game.\n    event PlayerJoinedGame(uint256 gameId, address player, uint8 playerNumber);\n    // PlayerMadeMove signals that `player` filled in the board of the game with\n    // the id `gameId`. She did so at the coordinates `xCoordinate`, `yCoordinate`.\n    event PlayerMadeMove(uint256 gameId, address player, uint xCoordinate, uint yCoordinate);\n    // GameOver signals that the game with the id `gameId` is over.\n    // The winner is indicated by `winner`. No more moves are allowed in this game.\n    event GameOver(uint256 gameId, Winners winner);\n    event SentMoney(uint256 money);\n\n    // newGame creates a new game and returns the new game's `gameId`.\n    // The `gameId` is required in subsequent calls to identify the game.\n    function newGame() public returns (uint256 gameId) {\n        Game memory game;\n        game.playerTurn = Players.PlayerOne;\n        game.threshold = 200;\n\n        nrOfGames++;\n        games[nrOfGames] = game;\n        emit GameCreated(nrOfGames, msg.sender);\n\n        return nrOfGames;\n    }\n\n    // joinGame lets the sender of the message join the game with the id `gameId`.\n    // It returns `success = true` when joining the game was possible and\n    // `false` otherwise.\n    // `reason` indicates why a game was joined or not joined.\n    function joinGame(uint256 _gameId) public payable returns (bool success, string memory reason) {\n        Game storage game = games[_gameId];\n        address player = msg.sender;\n        // emit PlayerJoinedGame(_gameId, player, uint8(Players.PlayerOne));\n        if (_gameId > nrOfGames) {\n            return (false, \"No such game exists.\");\n        }\n\n        require (msg.value >= game.threshold);\n        balance += msg.value;\n        emit SentMoney(game.threshold); \n\n        // Assign the new player to slot 1 if it is still available.\n        if (game.playerOne == address(0)) {\n            game.playerOne = player;\n            emit PlayerJoinedGame(_gameId, player, uint8(Players.PlayerOne));\n\n            return (true, \"Joined as player one.\");\n        }\n\n        // If slot 1 is taken, assign the new player to slot 2 if it is still available.\n        if (game.playerTwo == address(0)) {\n            game.playerTwo = player;\n            emit PlayerJoinedGame(_gameId, player, uint8(Players.PlayerTwo));\n\n            return (true, \"Joined as player two. Player one can make the first move.\");\n        }\n\n        return (false, \"All seats taken.\");\n    }\n\n    // makeMove inserts a player on the game board.\n    // The player is identified as the sender of the message.\n    function makeMove(uint256 _gameId, uint _xCoordinate, uint _yCoordinate) public payable returns (bool success, string memory reason) {\n        if (_gameId > nrOfGames) {\n            return (false, \"No such game exists.\");\n        }\n\n        Game storage game = games[_gameId];\n\n        // Any winner other than `None` means that no more moves are allowed.\n        if (game.winner != Winners.None) {\n            return (false, \"The game has already ended.\");\n        }\n\n        // Only the player whose turn it is may make a move.\n        if (msg.sender != getCurrentPlayer(game)) {\n            // TODO: what if the player is not present in the game at all?\n            return (false, \"It is not your turn.\");\n        }\n\n        // Players can only make moves in cells on the board that have not been played before.\n        if (game.board[_xCoordinate][_yCoordinate] != Players.None) {\n            return (false, \"There is already a mark at the given coordinates.\");\n        }\n\n        // Now the move is recorded and the according event emitted.\n        game.board[_xCoordinate][_yCoordinate] = game.playerTurn;\n        emit PlayerMadeMove(_gameId, msg.sender, _xCoordinate, _yCoordinate);\n\n        // Check if there is a winner now that we have a new move.\n        Winners winner = calculateWinner(game.board);\n        if (winner != Winners.None) {\n            // If there is a winner (can be a `Draw`) it must be recorded in the game and\n            // the corresponding event must be emitted.\n            game.winner = winner;\n            address payable player;\n            if (winner == Winners.PlayerOne){\n                player = address(uint256(game.playerOne));\n            }\n            if (winner == Winners.PlayerTwo){\n                player = address(uint256(game.playerOne));\n            }\n            player.transfer(2*game.threshold);\n\n            emit GameOver(_gameId, winner);\n\n            return (true, \"The game is over.\");\n        }\n\n        // A move was made and there is no winner yet.\n        // The next player should make her move.\n        nextPlayer(game);\n\n        return (true, \"Your turn is over\");\n    }\n\n    // getCurrentPlayer returns the address of the player that should make the next move.\n    // Returns the `0x0` address if it is no player's turn.\n    function getCurrentPlayer(Game storage _game) private view returns (address player) {\n        if (_game.playerTurn == Players.PlayerOne) {\n            return _game.playerOne;\n        }\n\n        if (_game.playerTurn == Players.PlayerTwo) {\n            return _game.playerTwo;\n        }\n\n        return address(0);\n    }\n\n    // calculateWinner returns the winner on the given board.\n    // The returned winner can be `None` in which case there is no winner and no draw.\n    function calculateWinner(Players[3][3] memory _board) private pure returns (Winners winner) {\n        // First we check if there is a victory in a row.\n        // If so, convert `Players` to `Winners`\n        // Subsequently we do the same for columns and diagonals.\n        Players player = winnerInRow(_board);\n        if (player != Players.None) {\n            return player == Players.PlayerOne ? Winners.PlayerOne : Winners.PlayerTwo;\n        }\n        \n        player = winnerInColumn(_board);\n        if (player != Players.None) {\n            return player == Players.PlayerOne ? Winners.PlayerOne : Winners.PlayerTwo;\n        }\n\n        player = winnerInDiagonal(_board);\n        if (player != Players.None) {\n            return player == Players.PlayerOne ? Winners.PlayerOne : Winners.PlayerTwo;\n        }\n\n        // If there is no winner and no more space on the board,\n        // then it is a draw.\n        if (isBoardFull(_board)) {\n            return Winners.Draw;\n        }\n\n        return Winners.None;\n    }\n\n    // winnerInRow returns the player that wins in any row.\n    // To win in a row, all cells in the row must belong to the same player\n    // and that player must not be the `None` player.\n    function winnerInRow(Players[3][3] memory _board) private pure returns (Players winner) {\n        for (uint8 x = 0; x < 3; x++) {\n            if (\n                _board[x][0] == _board[x][1]\n                && _board[x][1]  == _board[x][2]\n                && _board[x][0] != Players.None\n            ) {\n                return _board[x][0];\n            }\n        }\n\n        return Players.None;\n    }\n\n    // winnerInColumn returns the player that wins in any column.\n    // To win in a column, all cells in the column must belong to the same player\n    // and that player must not be the `None` player.\n    function winnerInColumn(Players[3][3] memory _board) private pure returns (Players winner) {\n        for (uint8 y = 0; y < 3; y++) {\n            if (\n                _board[0][y] == _board[1][y]\n                && _board[1][y] == _board[2][y]\n                && _board[0][y] != Players.None\n            ) {\n                return _board[0][y];\n            }\n        }\n\n        return Players.None;\n    }\n\n    // winnerInDiagoral returns the player that wins in any diagonal.\n    // To win in a diagonal, all cells in the diaggonal must belong to the same player\n    // and that player must not be the `None` player.\n    function winnerInDiagonal(Players[3][3] memory _board) private pure returns (Players winner) {\n        if (\n            _board[0][0] == _board[1][1]\n            && _board[1][1] == _board[2][2]\n            && _board[0][0] != Players.None\n        ) {\n            return _board[0][0];\n        }\n\n        if (\n            _board[0][2] == _board[1][1]\n            && _board[1][1] == _board[2][0]\n            && _board[0][2] != Players.None\n        ) {\n            return _board[0][2];\n        }\n\n        return Players.None;\n    }\n\n    // isBoardFull returns true if all cells of the board belong to a player other\n    // than `None`.\n    function isBoardFull(Players[3][3] memory _board) private pure returns (bool isFull) {\n        for (uint8 x = 0; x < 3; x++) {\n            for (uint8 y = 0; y < 3; y++) {\n                if (_board[x][y] == Players.None) {\n                    return false;\n                }\n            }\n        }\n\n        return true;\n    }\n\n    // nextPlayer changes whose turn it is for the given `_game`.\n    function nextPlayer(Game storage _game) private {\n        if (_game.playerTurn == Players.PlayerOne) {\n            _game.playerTurn = Players.PlayerTwo;\n        } else {\n            _game.playerTurn = Players.PlayerOne;\n        }\n    }\n}\n\n//TimeOut\n//SendMoney\n//RecieveMoney\n//CheckThreshold\n//RandomPlayer",
  "sourcePath": "/home/samanvaya/courses/sem5/Blockchain/Assignment1/TicTacToe/contracts/TicTacToe.sol",
  "compiler": {
    "name": "solc",
    "version": "0.5.8+commit.23d335f2.Emscripten.clang"
  },
  "schemaVersion": "3.0.15",
  "updatedAt": "2019-09-14T18:37:18.321Z",
  "devdoc": {
    "methods": {}
  },
  "userdoc": {
    "methods": {}
  }
}