{
  "contractName": "TicTacToe",
  "abi": [
    {
      "anonymous": false,
      "inputs": [
        {
          "indexed": false,
          "name": "gameId",
          "type": "uint256"
        },
        {
          "indexed": false,
          "name": "creator",
          "type": "address"
        }
      ],
      "name": "GameCreated",
      "type": "event"
    },
    {
      "anonymous": false,
      "inputs": [
        {
          "indexed": false,
          "name": "gameId",
          "type": "uint256"
        },
        {
          "indexed": false,
          "name": "player",
          "type": "address"
        },
        {
          "indexed": false,
          "name": "playerNumber",
          "type": "uint8"
        }
      ],
      "name": "PlayerJoinedGame",
      "type": "event"
    },
    {
      "anonymous": false,
      "inputs": [
        {
          "indexed": false,
          "name": "gameId",
          "type": "uint256"
        },
        {
          "indexed": false,
          "name": "player",
          "type": "address"
        },
        {
          "indexed": false,
          "name": "xCoordinate",
          "type": "uint256"
        },
        {
          "indexed": false,
          "name": "yCoordinate",
          "type": "uint256"
        }
      ],
      "name": "PlayerMadeMove",
      "type": "event"
    },
    {
      "anonymous": false,
      "inputs": [
        {
          "indexed": false,
          "name": "gameId",
          "type": "uint256"
        },
        {
          "indexed": false,
          "name": "winner",
          "type": "uint8"
        }
      ],
      "name": "GameOver",
      "type": "event"
    },
    {
      "anonymous": false,
      "inputs": [
        {
          "indexed": false,
          "name": "money",
          "type": "uint256"
        }
      ],
      "name": "SentMoney",
      "type": "event"
    },
    {
      "anonymous": false,
      "inputs": [
        {
          "indexed": false,
          "name": "duration",
          "type": "uint256"
        },
        {
          "indexed": false,
          "name": "player",
          "type": "address"
        }
      ],
      "name": "TimedOut",
      "type": "event"
    },
    {
      "constant": false,
      "inputs": [],
      "name": "newGame",
      "outputs": [
        {
          "name": "gameId",
          "type": "uint256"
        }
      ],
      "payable": false,
      "stateMutability": "nonpayable",
      "type": "function"
    },
    {
      "constant": false,
      "inputs": [
        {
          "name": "_gameId",
          "type": "uint256"
        },
        {
          "name": "choice",
          "type": "uint8"
        }
      ],
      "name": "joinGame",
      "outputs": [
        {
          "name": "success",
          "type": "bool"
        },
        {
          "name": "reason",
          "type": "string"
        }
      ],
      "payable": true,
      "stateMutability": "payable",
      "type": "function"
    },
    {
      "constant": false,
      "inputs": [
        {
          "name": "_gameId",
          "type": "uint256"
        },
        {
          "name": "_xCoordinate",
          "type": "uint256"
        },
        {
          "name": "_yCoordinate",
          "type": "uint256"
        }
      ],
      "name": "makeMove",
      "outputs": [
        {
          "name": "success",
          "type": "bool"
        },
        {
          "name": "reason",
          "type": "string"
        }
      ],
      "payable": true,
      "stateMutability": "payable",
      "type": "function"
    }
  ],
  "bytecode": "0x608060405234801561001057600080fd5b50611c70806100206000396000f3fe6080604052600436106100345760003560e01c80637d03f5f314610039578063ca6649c514610064578063cfc2f5ff14610123575b600080fd5b34801561004557600080fd5b5061004e6101e9565b6040518082815260200191505060405180910390f35b61009d6004803603604081101561007a57600080fd5b8101908080359060200190929190803560ff1690602001909291905050506103ed565b604051808315151515815260200180602001828103825283818151815260200191508051906020019080838360005b838110156100e75780820151818401526020810190506100cc565b50505050905090810190601f1680156101145780820380516001836020036101000a031916815260200191505b50935050505060405180910390f35b6101636004803603606081101561013957600080fd5b810190808035906020019092919080359060200190929190803590602001909291905050506108bc565b604051808315151515815260200180602001828103825283818151815260200191508051906020019080838360005b838110156101ad578082015181840152602081019050610192565b50505050905090810190601f1680156101da5780820380516001836020036101000a031916815260200191505b50935050505060405180910390f35b60006101f361197b565b60018160600190600281111561020557fe5b9081600281111561021257fe5b8152505060c88160a001818152505060008160c001818152505060148160e001818152505060016000815480929190600101919050555080600080600154815260200190815260200160002060008201518160000160006101000a81548173ffffffffffffffffffffffffffffffffffffffff021916908373ffffffffffffffffffffffffffffffffffffffff16021790555060208201518160010160006101000a81548173ffffffffffffffffffffffffffffffffffffffff021916908373ffffffffffffffffffffffffffffffffffffffff16021790555060408201518160010160146101000a81548160ff0219169083600381111561031057fe5b021790555060608201518160010160156101000a81548160ff0219169083600281111561033957fe5b0217905550608082015181600201906003610355929190611a08565b5060a0820151816005015560c0820151816006015560e082015181600701559050507fc3e0f84839dc888c892a013d10c8f9d6dc05a21a879d0ce468ca558013e9121c60015433604051808381526020018273ffffffffffffffffffffffffffffffffffffffff1673ffffffffffffffffffffffffffffffffffffffff1681526020019250505060405180910390a160015491505090565b600060606000806000868152602001908152602001600020905060003390506001548611156104595760006040518060400160405280601481526020017f4e6f20737563682067616d65206578697374732e0000000000000000000000008152509350935050506108b5565b816005015434101561046a57600080fd5b346002600082825401925050819055507f1e01c8d258ea60a59bd755ea561a66d21aa15e95a3380e3389ca549d8ccba43182600501546040518082815260200191505060405180910390a160008560ff1614806104ca575060018560ff16145b6104d357600080fd5b600073ffffffffffffffffffffffffffffffffffffffff168260000160009054906101000a900473ffffffffffffffffffffffffffffffffffffffff1673ffffffffffffffffffffffffffffffffffffffff16141561073057808260000160006101000a81548173ffffffffffffffffffffffffffffffffffffffff021916908373ffffffffffffffffffffffffffffffffffffffff1602179055507f8f5866c09e99941481e2be79d3a7698371543fe3ad3387b903553fd6043e855086826001600281111561059f57fe5b604051808481526020018373ffffffffffffffffffffffffffffffffffffffff1673ffffffffffffffffffffffffffffffffffffffff1681526020018260ff1660ff168152602001935050505060405180910390a160008560ff1614156106ed57308260010160006101000a81548173ffffffffffffffffffffffffffffffffffffffff021916908373ffffffffffffffffffffffffffffffffffffffff1602179055507f8f5866c09e99941481e2be79d3a7698371543fe3ad3387b903553fd6043e8550863060028081111561067257fe5b604051808481526020018373ffffffffffffffffffffffffffffffffffffffff1673ffffffffffffffffffffffffffffffffffffffff1681526020018260ff1660ff168152602001935050505060405180910390a160016040518060600160405280602f8152602001611bdd602f91399350935050506108b5565b60016040518060400160405280601581526020017f4a6f696e656420617320706c61796572206f6e652e00000000000000000000008152509350935050506108b5565b600073ffffffffffffffffffffffffffffffffffffffff168260010160009054906101000a900473ffffffffffffffffffffffffffffffffffffffff1673ffffffffffffffffffffffffffffffffffffffff16141561087657808260010160006101000a81548173ffffffffffffffffffffffffffffffffffffffff021916908373ffffffffffffffffffffffffffffffffffffffff1602179055507f8f5866c09e99941481e2be79d3a7698371543fe3ad3387b903553fd6043e855086826002808111156107fb57fe5b604051808481526020018373ffffffffffffffffffffffffffffffffffffffff1673ffffffffffffffffffffffffffffffffffffffff1681526020018260ff1660ff168152602001935050505060405180910390a16001604051806060016040528060398152602001611c0c603991399350935050506108b5565b60006040518060400160405280601081526020017f416c6c2073656174732074616b656e2e000000000000000000000000000000008152509350935050505b9250929050565b6000606060015485111561090b5760006040518060400160405280601481526020017f4e6f20737563682067616d65206578697374732e00000000000000000000000081525091509150610f42565b600080600087815260200190815260200160002090506000600381111561092e57fe5b8160010160149054906101000a900460ff16600381111561094b57fe5b146109925760006040518060400160405280601b81526020017f5468652067616d652068617320616c726561647920656e6465642e00000000008152509250925050610f42565b8060070154816006015442031115610a5d577f4719ef7209543cfdc7d26e9240f79896234119be2c793bd1e1b7b9867fa630d781600701546109d383610f4a565b604051808381526020018273ffffffffffffffffffffffffffffffffffffffff1673ffffffffffffffffffffffffffffffffffffffff1681526020019250505060405180910390a160006040518060400160405280600981526020017f54696d6564206f757400000000000000000000000000000000000000000000008152509250925050610f42565b428160060181905550610a6f81610f4a565b73ffffffffffffffffffffffffffffffffffffffff163373ffffffffffffffffffffffffffffffffffffffff1614610ae35760006040518060400160405280601481526020017f4974206973206e6f7420796f7572207475726e2e0000000000000000000000008152509250925050610f42565b60006002811115610af057fe5b816002018660038110610aff57fe5b018560038110610b0b57fe5b602091828204019190069054906101000a900460ff166002811115610b2c57fe5b14610b56576000604051806060016040528060318152602001611bac603191399250925050610f42565b8060010160159054906101000a900460ff16816002018660038110610b7757fe5b018560038110610b8357fe5b602091828204019190066101000a81548160ff02191690836002811115610ba657fe5b02179055507faa03b0eb53c70f6640eba4234ad2c58782c8927e7abf7d3a6e2c45d07ca9d58386338787604051808581526020018473ffffffffffffffffffffffffffffffffffffffff1673ffffffffffffffffffffffffffffffffffffffff16815260200183815260200182815260200194505050505060405180910390a16000610cd382600201600380602002604051908101604052809291906000905b82821015610cca57838201600380602002604051908101604052809291908260038015610cb6576020028201916000905b82829054906101000a900460ff166002811115610c9057fe5b81526020019060010190602082600001049283019260010382029150808411610c775790505b505050505081526020019060010190610c46565b5050505061100d565b905060006003811115610ce257fe5b816003811115610cee57fe5b14610eb357808260010160146101000a81548160ff02191690836003811115610d1357fe5b0217905550600060016003811115610d2757fe5b826003811115610d3357fe5b1415610d77578260000160009054906101000a900473ffffffffffffffffffffffffffffffffffffffff1673ffffffffffffffffffffffffffffffffffffffff1690505b60026003811115610d8457fe5b826003811115610d9057fe5b1415610dd4578260000160009054906101000a900473ffffffffffffffffffffffffffffffffffffffff1673ffffffffffffffffffffffffffffffffffffffff1690505b8073ffffffffffffffffffffffffffffffffffffffff166108fc84600501546002029081150290604051600060405180830381858888f19350505050158015610e21573d6000803e3d6000fd5b507f132b564c6f96092065580fd28989d181dfbbfe4aa2fb7fb1eda8af68ba3073e0888360405180838152602001826003811115610e5b57fe5b60ff1681526020019250505060405180910390a160016040518060400160405280601181526020017f5468652067616d65206973206f7665722e00000000000000000000000000000081525094509450505050610f42565b610ebc8261113e565b3073ffffffffffffffffffffffffffffffffffffffff16610edc83610f4a565b73ffffffffffffffffffffffffffffffffffffffff161415610f0357610f0287836111c3565b5b60016040518060400160405280601181526020017f596f7572207475726e206973206f7665720000000000000000000000000000008152509350935050505b935093915050565b600060016002811115610f5957fe5b8260010160159054906101000a900460ff166002811115610f7657fe5b1415610fa8578160000160009054906101000a900473ffffffffffffffffffffffffffffffffffffffff169050611008565b600280811115610fb457fe5b8260010160159054906101000a900460ff166002811115610fd157fe5b1415611003578160010160009054906101000a900473ffffffffffffffffffffffffffffffffffffffff169050611008565b600090505b919050565b6000806110198361133c565b90506000600281111561102857fe5b81600281111561103457fe5b14611069576001600281111561104657fe5b81600281111561105257fe5b1461105e576002611061565b60015b915050611139565b611072836114ab565b90506000600281111561108157fe5b81600281111561108d57fe5b146110c2576001600281111561109f57fe5b8160028111156110ab57fe5b146110b75760026110ba565b60015b915050611139565b6110cb8361161a565b9050600060028111156110da57fe5b8160028111156110e657fe5b1461111b57600160028111156110f857fe5b81600281111561110457fe5b14611110576002611113565b60015b915050611139565b61112483611892565b15611133576003915050611139565b60009150505b919050565b6001600281111561114b57fe5b8160010160159054906101000a900460ff16600281111561116857fe5b14156111995760028160010160156101000a81548160ff0219169083600281111561118f57fe5b02179055506111c0565b60018160010160156101000a81548160ff021916908360028111156111ba57fe5b02179055505b50565b60006111cd61192e565b90506000600382816111db57fe5b0690506000600383816111ea57fe5b0490505b600060028111156111fb57fe5b84600201836003811061120a57fe5b01826003811061121657fe5b602091828204019190069054906101000a900460ff16600281111561123757fe5b146112655761124461192e565b92506003838161125057fe5b0691506003838161125d57fe5b0490506111ee565b8360010160159054906101000a900460ff1684600201836003811061128657fe5b01826003811061129257fe5b602091828204019190066101000a81548160ff021916908360028111156112b557fe5b02179055507faa03b0eb53c70f6640eba4234ad2c58782c8927e7abf7d3a6e2c45d07ca9d58385308484604051808581526020018473ffffffffffffffffffffffffffffffffffffffff1673ffffffffffffffffffffffffffffffffffffffff16815260200183815260200182815260200194505050505060405180910390a15050505050565b600080600090505b60038160ff1610156114a057828160ff166003811061135f57fe5b602002015160016003811061137057fe5b6020020151600281111561138057fe5b838260ff166003811061138f57fe5b60200201516000600381106113a057fe5b602002015160028111156113b057fe5b14801561141a5750828160ff16600381106113c757fe5b60200201516002600381106113d857fe5b602002015160028111156113e857fe5b838260ff16600381106113f757fe5b602002015160016003811061140857fe5b6020020151600281111561141857fe5b145b801561146157506000600281111561142e57fe5b838260ff166003811061143d57fe5b602002015160006003811061144e57fe5b6020020151600281111561145e57fe5b14155b1561149357828160ff166003811061147557fe5b602002015160006003811061148657fe5b60200201519150506114a6565b8080600101915050611344565b50600090505b919050565b600080600090505b60038160ff16101561160f57826001600381106114cc57fe5b60200201518160ff16600381106114df57fe5b602002015160028111156114ef57fe5b836000600381106114fc57fe5b60200201518260ff166003811061150f57fe5b6020020151600281111561151f57fe5b14801561158957508260026003811061153457fe5b60200201518160ff166003811061154757fe5b6020020151600281111561155757fe5b8360016003811061156457fe5b60200201518260ff166003811061157757fe5b6020020151600281111561158757fe5b145b80156115d057506000600281111561159d57fe5b836000600381106115aa57fe5b60200201518260ff16600381106115bd57fe5b602002015160028111156115cd57fe5b14155b1561160257826000600381106115e257fe5b60200201518160ff16600381106115f557fe5b6020020151915050611615565b80806001019150506114b3565b50600090505b919050565b60008160016003811061162957fe5b602002015160016003811061163a57fe5b6020020151600281111561164a57fe5b8260006003811061165757fe5b602002015160006003811061166857fe5b6020020151600281111561167857fe5b1480156116de57508160026003811061168d57fe5b602002015160026003811061169e57fe5b602002015160028111156116ae57fe5b826001600381106116bb57fe5b60200201516001600381106116cc57fe5b602002015160028111156116dc57fe5b145b80156117235750600060028111156116f257fe5b826000600381106116ff57fe5b602002015160006003811061171057fe5b6020020151600281111561172057fe5b14155b15611752578160006003811061173557fe5b602002015160006003811061174657fe5b6020020151905061188d565b8160016003811061175f57fe5b602002015160016003811061177057fe5b6020020151600281111561178057fe5b8260006003811061178d57fe5b602002015160026003811061179e57fe5b602002015160028111156117ae57fe5b1480156118145750816002600381106117c357fe5b60200201516000600381106117d457fe5b602002015160028111156117e457fe5b826001600381106117f157fe5b602002015160016003811061180257fe5b6020020151600281111561181257fe5b145b801561185957506000600281111561182857fe5b8260006003811061183557fe5b602002015160026003811061184657fe5b6020020151600281111561185657fe5b14155b15611888578160006003811061186b57fe5b602002015160026003811061187c57fe5b6020020151905061188d565b600090505b919050565b600080600090505b60038160ff1610156119235760008090505b60038160ff16101561191557600060028111156118c557fe5b848360ff16600381106118d457fe5b60200201518260ff16600381106118e757fe5b602002015160028111156118f757fe5b141561190857600092505050611929565b80806001019150506118ac565b50808060010191505061189a565b50600190505b919050565b600080600090506000600a82604051602001808281526020019150506040516020818303038152906040528051906020012060001c8161196a57fe5b069050600182019150809250505090565b604051806102000160405280600073ffffffffffffffffffffffffffffffffffffffff168152602001600073ffffffffffffffffffffffffffffffffffffffff168152602001600060038111156119ce57fe5b8152602001600060028111156119e057fe5b81526020016119ed611a56565b81526020016000815260200160008152602001600081525090565b8260038101928215611a45579160200282015b82811115611a4457825182906003611a34929190611a84565b5091602001919060010190611a1b565b5b509050611a529190611b26565b5090565b6040518061012001604052806003905b611a6e611b52565b815260200190600190039081611a665790505090565b826003601f01602090048101928215611b155791602002820160005b83821115611ae657835183826101000a81548160ff02191690836002811115611ac557fe5b02179055509260200192600101602081600001049283019260010302611aa0565b8015611b135782816101000a81549060ff0219169055600101602081600001049283019260010302611ae6565b505b509050611b229190611b74565b5090565b611b4f91905b80821115611b4b5760008181611b429190611ba4565b50600101611b2c565b5090565b90565b6040518060600160405280600390602082028038833980820191505090505090565b611ba191905b80821115611b9d57600081816101000a81549060ff021916905550600101611b7a565b5090565b90565b506000905556fe546865726520697320616c72656164792061206d61726b2061742074686520676976656e20636f6f7264696e617465732e4a6f696e656420617320706c61796572206f6e6520746f20706c617920776974682072616e646f6d206167656e742e4a6f696e656420617320706c617965722074776f2e20506c61796572206f6e652063616e206d616b6520746865206669727374206d6f76652ea165627a7a723058202ed88fc56aed1a21136b08346241bb254442b8aed90aab5d093f4ff586e8691d0029",
  "source": "pragma solidity >=0.4.21 <0.6.0;\n\n\n// TicTacToe is a solidity implementation of the tic tac toe game.\n// You can find the rules at https://en.wikipedia.org/wiki/Tic-tac-toe\ncontract TicTacToe {\n\n    // Players enumerates all possible players\n    enum Players { None, PlayerOne, PlayerTwo }\n    // Winners enumerates all possible winners\n    enum Winners { None, PlayerOne, PlayerTwo, Draw }\n\n    // Game stores the state of a round of tic tac toe.\n    // As long as `winner` is `None`, the game is not over.\n    // `playerTurn` defines who may go next.\n    // Player one must make the first move.\n    // The `board` has the size 3x3 and in each cell, a player\n    // can be listed. Initializes as `None` player, as that is the\n    // first element in the enumeration.\n    // That means that players are free to fill in any cell at the\n    // start of the game.\n    struct Game {\n        address playerOne;\n        address playerTwo;\n        Winners winner;\n        Players playerTurn;\n        Players[3][3] board;\n        uint256 threshold;\n        uint256 gameTime;\n        uint256 duration;\n    }\n\n    // games stores all the games.\n    // Games that are already over as well as games that are still running.\n    // It is possible to iterate over all games, as the keys of the mapping\n    // are known to be the integers from `1` to `nrOfGames`.\n     mapping(uint256 => Game) private games;\n    // nrOfGames stores the total number of games in this contract.\n    uint256 private nrOfGames;\n    uint256 private balance;\n    // GameCreated signals that `creator` created a new game with this `gameId`.\n    event GameCreated(uint256 gameId, address creator);\n    // PlayerJoinedGame signals that `player` joined the game with the id `gameId`.\n    // That player has the player number `playerNumber` in that game.\n    event PlayerJoinedGame(uint256 gameId, address player, uint8 playerNumber);\n    // PlayerMadeMove signals that `player` filled in the board of the game with\n    // the id `gameId`. She did so at the coordinates `xCoordinate`, `yCoordinate`.\n    event PlayerMadeMove(uint256 gameId, address player, uint xCoordinate, uint yCoordinate);\n    // GameOver signals that the game with the id `gameId` is over.\n    // The winner is indicated by `winner`. No more moves are allowed in this game.\n    event GameOver(uint256 gameId, Winners winner);\n    event SentMoney(uint256 money);\n    event TimedOut(uint256 duration, address player);\n    // newGame creates a new game and returns the new game's `gameId`.\n    // The `gameId` is required in subsequent calls to identify the game.\n    function newGame() public returns (uint256 gameId) {\n        Game memory game;\n        game.playerTurn = Players.PlayerOne;\n        game.threshold = 200;\n        game.gameTime = 0;\n        game.duration = 20;\n\n        nrOfGames++;\n        games[nrOfGames] = game;\n        emit GameCreated(nrOfGames, msg.sender);\n\n        return nrOfGames;\n    }\n\n    // joinGame lets the sender of the message join the game with the id `gameId`.\n    // It returns `success = true` when joining the game was possible and\n    // `false` otherwise.\n    // `reason` indicates why a game was joined or not joined.\n    function joinGame(uint256 _gameId, uint8 choice) public payable returns (bool success, string memory reason) {\n        Game storage game = games[_gameId];\n        address player = msg.sender;\n        // emit PlayerJoinedGame(_gameId, player, uint8(Players.PlayerOne));\n        if (_gameId > nrOfGames) {\n            return (false, \"No such game exists.\");\n        }\n\n        require (msg.value >= game.threshold);\n        balance += msg.value;\n        emit SentMoney(game.threshold); \n\n        require(choice == 0 || choice == 1);\n\n        // Assign the new player to slot 1 if it is still available.\n        if (game.playerOne == address(0)) {\n            game.playerOne = player;\n            emit PlayerJoinedGame(_gameId, player, uint8(Players.PlayerOne));\n\n            if (choice == 0){\n                game.playerTwo = address(this);\n                emit PlayerJoinedGame(_gameId, address(this), uint8(Players.PlayerTwo));\n                return (true, \"Joined as player one to play with random agent.\" );\n            }\n            return (true, \"Joined as player one.\");\n        }\n\n        // If slot 1 is taken, assign the new player to slot 2 if it is still available.\n        if (game.playerTwo == address(0)) {\n            game.playerTwo = player;\n            emit PlayerJoinedGame(_gameId, player, uint8(Players.PlayerTwo));\n\n            return (true, \"Joined as player two. Player one can make the first move.\");\n        }\n\n        return (false, \"All seats taken.\");\n    }\n\n    // makeMove inserts a player on the game board.\n    // The player is identified as the sender of the message.\n    function makeMove(uint256 _gameId, uint _xCoordinate, uint _yCoordinate) public payable returns (bool success, string memory reason) {\n        if (_gameId > nrOfGames) {\n            return (false, \"No such game exists.\");\n        }\n\n        Game storage game = games[_gameId];\n\n        // Any winner other than `None` means that no more moves are allowed.\n        if (game.winner != Winners.None) {\n            return (false, \"The game has already ended.\");\n        }\n        if (now - game.gameTime > game.duration){\n            emit TimedOut(game.duration, getCurrentPlayer(game));\n            return(false, \"Timed out\");\n        }\n        game.gameTime = now;\n        // Only the player whose turn it is may make a move.\n        if (msg.sender != getCurrentPlayer(game)) {\n            // TODO: what if the player is not present in the game at all?\n            return (false, \"It is not your turn.\");\n        }\n\n        // Players can only make moves in cells on the board that have not been played before.\n        if (game.board[_xCoordinate][_yCoordinate] != Players.None) {\n            return (false, \"There is already a mark at the given coordinates.\");\n        }\n\n        // Now the move is recorded and the according event emitted.\n        game.board[_xCoordinate][_yCoordinate] = game.playerTurn;\n        emit PlayerMadeMove(_gameId, msg.sender, _xCoordinate, _yCoordinate);\n\n        // Check if there is a winner now that we have a new move.\n        Winners winner = calculateWinner(game.board);\n        if (winner != Winners.None) {\n            // If there is a winner (can be a `Draw`) it must be recorded in the game and\n            // the corresponding event must be emitted.\n            game.winner = winner;\n            address payable player;\n            if (winner == Winners.PlayerOne){\n                player = address(uint256(game.playerOne));\n            }\n            if (winner == Winners.PlayerTwo){\n                player = address(uint256(game.playerOne));\n            }\n            player.transfer(2*game.threshold);\n\n            emit GameOver(_gameId, winner);\n\n            return (true, \"The game is over.\");\n        }\n\n        // A move was made and there is no winner yet.\n        // The next player should make her move.\n        nextPlayer(game);\n        if (getCurrentPlayer(game) == address(this)){\n            makeRandomMove(_gameId, game);\n        }\n        return (true, \"Your turn is over\");\n    }\n\n    function genRandomNumber() private pure returns (uint256 number){\n        uint256 key = 0;\n        uint256 random = uint256(keccak256(abi.encode(key))) % 10;\n        key += 1;\n        return random;\n    }\n\n    function makeRandomMove(uint256 _gameId, Game storage game) private{\n        uint256 random = genRandomNumber();\n        uint256 x_coordinate = random%3;\n        uint256 y_coordinate = random/3;\n\n        while (game.board[x_coordinate][y_coordinate] != Players.None){ \n            random = genRandomNumber();\n            x_coordinate = random%3;\n            y_coordinate = random/3;\n        }    \n        game.board[x_coordinate][y_coordinate] = game.playerTurn;\n        emit PlayerMadeMove(_gameId, address(this), x_coordinate, y_coordinate);\n    }\n\n    // getCurrentPlayer returns the address of the player that should make the next move.\n    // Returns the `0x0` address if it is no player's turn.\n    function getCurrentPlayer(Game storage _game) private view returns (address player) {\n        if (_game.playerTurn == Players.PlayerOne) {\n            return _game.playerOne;\n        }\n\n        if (_game.playerTurn == Players.PlayerTwo) {\n            return _game.playerTwo;\n        }\n\n        return address(0);\n    }\n\n    // calculateWinner returns the winner on the given board.\n    // The returned winner can be `None` in which case there is no winner and no draw.\n    function calculateWinner(Players[3][3] memory _board) private pure returns (Winners winner) {\n        // First we check if there is a victory in a row.\n        // If so, convert `Players` to `Winners`\n        // Subsequently we do the same for columns and diagonals.\n        Players player = winnerInRow(_board);\n        if (player != Players.None) {\n            return player == Players.PlayerOne ? Winners.PlayerOne : Winners.PlayerTwo;\n        }\n        \n        player = winnerInColumn(_board);\n        if (player != Players.None) {\n            return player == Players.PlayerOne ? Winners.PlayerOne : Winners.PlayerTwo;\n        }\n\n        player = winnerInDiagonal(_board);\n        if (player != Players.None) {\n            return player == Players.PlayerOne ? Winners.PlayerOne : Winners.PlayerTwo;\n        }\n\n        // If there is no winner and no more space on the board,\n        // then it is a draw.\n        if (isBoardFull(_board)) {\n            return Winners.Draw;\n        }\n\n        return Winners.None;\n    }\n\n    // winnerInRow returns the player that wins in any row.\n    // To win in a row, all cells in the row must belong to the same player\n    // and that player must not be the `None` player.\n    function winnerInRow(Players[3][3] memory _board) private pure returns (Players winner) {\n        for (uint8 x = 0; x < 3; x++) {\n            if (\n                _board[x][0] == _board[x][1]\n                && _board[x][1]  == _board[x][2]\n                && _board[x][0] != Players.None\n            ) {\n                return _board[x][0];\n            }\n        }\n\n        return Players.None;\n    }\n\n    // winnerInColumn returns the player that wins in any column.\n    // To win in a column, all cells in the column must belong to the same player\n    // and that player must not be the `None` player.\n    function winnerInColumn(Players[3][3] memory _board) private pure returns (Players winner) {\n        for (uint8 y = 0; y < 3; y++) {\n            if (\n                _board[0][y] == _board[1][y]\n                && _board[1][y] == _board[2][y]\n                && _board[0][y] != Players.None\n            ) {\n                return _board[0][y];\n            }\n        }\n\n        return Players.None;\n    }\n\n    // winnerInDiagoral returns the player that wins in any diagonal.\n    // To win in a diagonal, all cells in the diaggonal must belong to the same player\n    // and that player must not be the `None` player.\n    function winnerInDiagonal(Players[3][3] memory _board) private pure returns (Players winner) {\n        if (\n            _board[0][0] == _board[1][1]\n            && _board[1][1] == _board[2][2]\n            && _board[0][0] != Players.None\n        ) {\n            return _board[0][0];\n        }\n\n        if (\n            _board[0][2] == _board[1][1]\n            && _board[1][1] == _board[2][0]\n            && _board[0][2] != Players.None\n        ) {\n            return _board[0][2];\n        }\n\n        return Players.None;\n    }\n\n    // isBoardFull returns true if all cells of the board belong to a player other\n    // than `None`.\n    function isBoardFull(Players[3][3] memory _board) private pure returns (bool isFull) {\n        for (uint8 x = 0; x < 3; x++) {\n            for (uint8 y = 0; y < 3; y++) {\n                if (_board[x][y] == Players.None) {\n                    return false;\n                }\n            }\n        }\n\n        return true;\n    }\n\n    // nextPlayer changes whose turn it is for the given `_game`.\n    function nextPlayer(Game storage _game) private {\n        if (_game.playerTurn == Players.PlayerOne) {\n            _game.playerTurn = Players.PlayerTwo;\n        } else {\n            _game.playerTurn = Players.PlayerOne;\n        }\n    }\n}\n\n//TimeOut\n//Multiple games",
  "sourcePath": "/home/samanvaya/courses/sem5/Blockchain/Assignment1/TicTacToe/contracts/TicTacToe.sol",
  "compiler": {
    "name": "solc",
    "version": "0.5.8+commit.23d335f2.Emscripten.clang"
  },
  "schemaVersion": "3.0.15",
  "updatedAt": "2019-09-15T14:18:17.091Z",
  "devdoc": {
    "methods": {}
  },
  "userdoc": {
    "methods": {}
  }
}