{
  "contractName": "TicTacToe",
  "abi": [
    {
      "constant": true,
      "inputs": [
        {
          "name": "",
          "type": "uint256"
        }
      ],
      "name": "games",
      "outputs": [
        {
          "name": "playerOne",
          "type": "address"
        },
        {
          "name": "playerTwo",
          "type": "address"
        },
        {
          "name": "playerOneStake",
          "type": "uint256"
        },
        {
          "name": "playerTwoStake",
          "type": "uint256"
        },
        {
          "name": "playerOneWins",
          "type": "uint256"
        },
        {
          "name": "playerTwoWins",
          "type": "uint256"
        },
        {
          "name": "winner",
          "type": "uint8"
        },
        {
          "name": "playerTurn",
          "type": "uint8"
        },
        {
          "name": "threshold",
          "type": "uint256"
        },
        {
          "name": "gameTime",
          "type": "uint256"
        },
        {
          "name": "duration",
          "type": "uint256"
        },
        {
          "name": "gameNo",
          "type": "uint256"
        }
      ],
      "payable": false,
      "stateMutability": "view",
      "type": "function"
    },
    {
      "constant": true,
      "inputs": [],
      "name": "nrOfGames",
      "outputs": [
        {
          "name": "",
          "type": "uint256"
        }
      ],
      "payable": false,
      "stateMutability": "view",
      "type": "function"
    },
    {
      "inputs": [],
      "payable": false,
      "stateMutability": "nonpayable",
      "type": "constructor"
    },
    {
      "anonymous": false,
      "inputs": [
        {
          "indexed": false,
          "name": "gameId",
          "type": "uint256"
        },
        {
          "indexed": false,
          "name": "creator",
          "type": "address"
        }
      ],
      "name": "GameCreated",
      "type": "event"
    },
    {
      "anonymous": false,
      "inputs": [
        {
          "indexed": false,
          "name": "gameId",
          "type": "uint256"
        },
        {
          "indexed": false,
          "name": "player",
          "type": "address"
        },
        {
          "indexed": false,
          "name": "playerNumber",
          "type": "uint8"
        }
      ],
      "name": "PlayerJoinedGame",
      "type": "event"
    },
    {
      "anonymous": false,
      "inputs": [
        {
          "indexed": false,
          "name": "gameId",
          "type": "uint256"
        },
        {
          "indexed": false,
          "name": "player",
          "type": "address"
        },
        {
          "indexed": false,
          "name": "xCoordinate",
          "type": "uint256"
        },
        {
          "indexed": false,
          "name": "yCoordinate",
          "type": "uint256"
        }
      ],
      "name": "PlayerMadeMove",
      "type": "event"
    },
    {
      "anonymous": false,
      "inputs": [
        {
          "indexed": false,
          "name": "gameId",
          "type": "uint256"
        },
        {
          "indexed": false,
          "name": "winner",
          "type": "uint8"
        }
      ],
      "name": "GameOver",
      "type": "event"
    },
    {
      "anonymous": false,
      "inputs": [
        {
          "indexed": false,
          "name": "money",
          "type": "uint256"
        }
      ],
      "name": "SentMoney",
      "type": "event"
    },
    {
      "anonymous": false,
      "inputs": [
        {
          "indexed": false,
          "name": "gameId",
          "type": "uint256"
        },
        {
          "indexed": false,
          "name": "gameNo",
          "type": "uint256"
        },
        {
          "indexed": false,
          "name": "winner",
          "type": "uint8"
        }
      ],
      "name": "gameDone",
      "type": "event"
    },
    {
      "anonymous": false,
      "inputs": [
        {
          "indexed": false,
          "name": "duration",
          "type": "uint256"
        },
        {
          "indexed": false,
          "name": "player",
          "type": "address"
        }
      ],
      "name": "TimedOut",
      "type": "event"
    },
    {
      "constant": false,
      "inputs": [],
      "name": "newGame",
      "outputs": [
        {
          "name": "gameId",
          "type": "uint256"
        }
      ],
      "payable": false,
      "stateMutability": "nonpayable",
      "type": "function"
    },
    {
      "constant": false,
      "inputs": [
        {
          "name": "_gameId",
          "type": "uint256"
        },
        {
          "name": "choice",
          "type": "uint8"
        }
      ],
      "name": "joinGame",
      "outputs": [
        {
          "name": "success",
          "type": "bool"
        },
        {
          "name": "reason",
          "type": "string"
        }
      ],
      "payable": true,
      "stateMutability": "payable",
      "type": "function"
    },
    {
      "constant": false,
      "inputs": [
        {
          "name": "_gameId",
          "type": "uint256"
        },
        {
          "name": "_xCoordinate",
          "type": "uint256"
        },
        {
          "name": "_yCoordinate",
          "type": "uint256"
        }
      ],
      "name": "makeMove",
      "outputs": [
        {
          "name": "success",
          "type": "bool"
        },
        {
          "name": "reason",
          "type": "string"
        }
      ],
      "payable": true,
      "stateMutability": "payable",
      "type": "function"
    }
  ],
  "bytecode": "0x608060405234801561001057600080fd5b50336000806101000a81548173ffffffffffffffffffffffffffffffffffffffff021916908373ffffffffffffffffffffffffffffffffffffffff1602179055506125e9806100606000396000f3fe60806040526004361061004a5760003560e01c8063117a5b901461004f5780637d03f5f31461015f578063ca6649c51461018a578063caf2faaa14610249578063cfc2f5ff14610274575b600080fd5b34801561005b57600080fd5b506100886004803603602081101561007257600080fd5b810190808035906020019092919050505061033a565b604051808d73ffffffffffffffffffffffffffffffffffffffff1673ffffffffffffffffffffffffffffffffffffffff1681526020018c73ffffffffffffffffffffffffffffffffffffffff1673ffffffffffffffffffffffffffffffffffffffff1681526020018b81526020018a815260200189815260200188815260200187600381111561011457fe5b60ff16815260200186600281111561012857fe5b60ff1681526020018581526020018481526020018381526020018281526020019c5050505050505050505050505060405180910390f35b34801561016b57600080fd5b506101746103f4565b6040518082815260200191505060405180910390f35b6101c3600480360360408110156101a057600080fd5b8101908080359060200190929190803560ff169060200190929190505050610701565b604051808315151515815260200180602001828103825283818151815260200191508051906020019080838360005b8381101561020d5780820151818401526020810190506101f2565b50505050905090810190601f16801561023a5780820380516001836020036101000a031916815260200191505b50935050505060405180910390f35b34801561025557600080fd5b5061025e610ec0565b6040518082815260200191505060405180910390f35b6102b46004803603606081101561028a57600080fd5b81019080803590602001909291908035906020019092919080359060200190929190505050610ec6565b604051808315151515815260200180602001828103825283818151815260200191508051906020019080838360005b838110156102fe5780820151818401526020810190506102e3565b50505050905090810190601f16801561032b5780820380516001836020036101000a031916815260200191505b50935050505060405180910390f35b60016020528060005260406000206000915090508060000160009054906101000a900473ffffffffffffffffffffffffffffffffffffffff16908060010160009054906101000a900473ffffffffffffffffffffffffffffffffffffffff16908060020154908060030154908060040154908060050154908060060160009054906101000a900460ff16908060060160019054906101000a900460ff169080600a01549080600b01549080600c01549080600d015490508c565b60008060009054906101000a900473ffffffffffffffffffffffffffffffffffffffff1673ffffffffffffffffffffffffffffffffffffffff163373ffffffffffffffffffffffffffffffffffffffff16146104b8576040517f08c379a000000000000000000000000000000000000000000000000000000000815260040180806020018281038252601b8152602001807f4f6e6c79206f776e65722063616e206372656174652067616d6521000000000081525060200191505060405180910390fd5b6104c06122bf565b60018160e0019060028111156104d257fe5b908160028111156104df57fe5b8152505060c88161012001818152505042816101400181815250506001816101800181815250506103e8816101600181815250506002600081548092919060010191905055508060016000600254815260200190815260200160002060008201518160000160006101000a81548173ffffffffffffffffffffffffffffffffffffffff021916908373ffffffffffffffffffffffffffffffffffffffff16021790555060208201518160010160006101000a81548173ffffffffffffffffffffffffffffffffffffffff021916908373ffffffffffffffffffffffffffffffffffffffff16021790555060408201518160020155606082015181600301556080820151816004015560a0820151816005015560c08201518160060160006101000a81548160ff0219169083600381111561061557fe5b021790555060e08201518160060160016101000a81548160ff0219169083600281111561063e57fe5b02179055506101008201518160070190600361065b92919061236f565b5061012082015181600a015561014082015181600b015561016082015181600c015561018082015181600d01559050507fc3e0f84839dc888c892a013d10c8f9d6dc05a21a879d0ce468ca558013e9121c60025433604051808381526020018273ffffffffffffffffffffffffffffffffffffffff1673ffffffffffffffffffffffffffffffffffffffff1681526020019250505060405180910390a160025491505090565b60006060600254841115801561071957506000600254115b61078b576040517f08c379a00000000000000000000000000000000000000000000000000000000081526004018080602001828103825260138152602001807f4e6f20737563682067616d65206578697374730000000000000000000000000081525060200191505060405180910390fd5b600060016000868152602001908152602001600020905080600a015434101561081c576040517f08c379a00000000000000000000000000000000000000000000000000000000081526004018080602001828103825260128152602001807f496e73756666696369656e74207374616b65000000000000000000000000000081525060200191505060405180910390fd5b8060000160009054906101000a900473ffffffffffffffffffffffffffffffffffffffff1673ffffffffffffffffffffffffffffffffffffffff163373ffffffffffffffffffffffffffffffffffffffff161415806108cb57508060010160009054906101000a900473ffffffffffffffffffffffffffffffffffffffff1673ffffffffffffffffffffffffffffffffffffffff163373ffffffffffffffffffffffffffffffffffffffff1614155b61093d576040517f08c379a00000000000000000000000000000000000000000000000000000000081526004018080602001828103825260178152602001807f596f752061726520616c726561647920696e2067616d6500000000000000000081525060200191505060405180910390fd5b600073ffffffffffffffffffffffffffffffffffffffff168160000160009054906101000a900473ffffffffffffffffffffffffffffffffffffffff1673ffffffffffffffffffffffffffffffffffffffff1614806109ec5750600073ffffffffffffffffffffffffffffffffffffffff168160010160009054906101000a900473ffffffffffffffffffffffffffffffffffffffff1673ffffffffffffffffffffffffffffffffffffffff16145b610a5e576040517f08c379a000000000000000000000000000000000000000000000000000000000815260040180806020018281038252600f8152602001807f416c6c2073656174732074616b656e000000000000000000000000000000000081525060200191505060405180910390fd5b60003390507f1e01c8d258ea60a59bd755ea561a66d21aa15e95a3380e3389ca549d8ccba43182600a01546040518082815260200191505060405180910390a160008560ff161480610ab3575060018560ff16145b610abc57600080fd5b600073ffffffffffffffffffffffffffffffffffffffff168260000160009054906101000a900473ffffffffffffffffffffffffffffffffffffffff1673ffffffffffffffffffffffffffffffffffffffff161415610d2b57808260000160006101000a81548173ffffffffffffffffffffffffffffffffffffffff021916908373ffffffffffffffffffffffffffffffffffffffff1602179055503482600201819055507f8f5866c09e99941481e2be79d3a7698371543fe3ad3387b903553fd6043e8550868260016002811115610b9157fe5b604051808481526020018373ffffffffffffffffffffffffffffffffffffffff1673ffffffffffffffffffffffffffffffffffffffff1681526020018260ff1660ff168152602001935050505060405180910390a160008560ff161415610ce857308260010160006101000a81548173ffffffffffffffffffffffffffffffffffffffff021916908373ffffffffffffffffffffffffffffffffffffffff1602179055503482600301819055507f8f5866c09e99941481e2be79d3a7698371543fe3ad3387b903553fd6043e85508630600280811115610c6d57fe5b604051808481526020018373ffffffffffffffffffffffffffffffffffffffff1673ffffffffffffffffffffffffffffffffffffffff1681526020018260ff1660ff168152602001935050505060405180910390a160016040518060600160405280602f8152602001612534602f9139935093505050610eb9565b60016040518060400160405280601581526020017f4a6f696e656420617320706c61796572206f6e652e0000000000000000000000815250935093505050610eb9565b600073ffffffffffffffffffffffffffffffffffffffff168260010160009054906101000a900473ffffffffffffffffffffffffffffffffffffffff1673ffffffffffffffffffffffffffffffffffffffff161415610e7a57348260030181905550808260010160006101000a81548173ffffffffffffffffffffffffffffffffffffffff021916908373ffffffffffffffffffffffffffffffffffffffff1602179055507f8f5866c09e99941481e2be79d3a7698371543fe3ad3387b903553fd6043e85508682600280811115610dff57fe5b604051808481526020018373ffffffffffffffffffffffffffffffffffffffff1673ffffffffffffffffffffffffffffffffffffffff1681526020018260ff1660ff168152602001935050505060405180910390a1600160405180606001604052806039815260200161258560399139935093505050610eb9565b60006040518060400160405280601081526020017f416c6c2073656174732074616b656e2e000000000000000000000000000000008152509350935050505b9250929050565b60025481565b600060606002548511158015610ede57506000600254115b610f50576040517f08c379a00000000000000000000000000000000000000000000000000000000081526004018080602001828103825260138152602001807f4e6f20737563682067616d65206578697374730000000000000000000000000081525060200191505060405180910390fd5b600060016000878152602001908152602001600020905060006003811115610f7457fe5b8160060160009054906101000a900460ff166003811115610f9157fe5b14611004576040517f08c379a000000000000000000000000000000000000000000000000000000000815260040180806020018281038252601a8152602001807f5468652067616d652068617320616c726561647920656e64656400000000000081525060200191505060405180910390fd5b80600c015481600b015442031115611146577f4719ef7209543cfdc7d26e9240f79896234119be2c793bd1e1b7b9867fa630d781600b015442036110478361188e565b604051808381526020018273ffffffffffffffffffffffffffffffffffffffff1673ffffffffffffffffffffffffffffffffffffffff1681526020019250505060405180910390a1600061109a8261188e565b73ffffffffffffffffffffffffffffffffffffffff1690508073ffffffffffffffffffffffffffffffffffffffff166108fc83600301548460020154019081150290604051600060405180830381858888f19350505050158015611102573d6000803e3d6000fd5b5060006040518060400160405280600981526020017f54696d6564206f75740000000000000000000000000000000000000000000000815250935093505050611886565b4281600b01819055506111588161188e565b73ffffffffffffffffffffffffffffffffffffffff163373ffffffffffffffffffffffffffffffffffffffff16146111f8576040517f08c379a000000000000000000000000000000000000000000000000000000000815260040180806020018281038252600d8152602001807f4e6f7420796f7572207475726e0000000000000000000000000000000000000081525060200191505060405180910390fd5b6000600281111561120557fe5b81600701866003811061121457fe5b01856003811061122057fe5b602091828204019190069054906101000a900460ff16600281111561124157fe5b14611297576040517f08c379a00000000000000000000000000000000000000000000000000000000081526004018080602001828103825260218152602001806125136021913960400191505060405180910390fd5b8060060160019054906101000a900460ff168160070186600381106112b857fe5b0185600381106112c457fe5b602091828204019190066101000a81548160ff021916908360028111156112e757fe5b02179055507faa03b0eb53c70f6640eba4234ad2c58782c8927e7abf7d3a6e2c45d07ca9d58386338787604051808581526020018473ffffffffffffffffffffffffffffffffffffffff1673ffffffffffffffffffffffffffffffffffffffff16815260200183815260200182815260200194505050505060405180910390a1600061141482600701600380602002604051908101604052809291906000905b8282101561140b578382016003806020026040519081016040528092919082600380156113f7576020028201916000905b82829054906101000a900460ff1660028111156113d157fe5b815260200190600101906020826000010492830192600103820291508084116113b85790505b505050505081526020019060010190611387565b50505050611951565b90506000600381111561142357fe5b81600381111561142f57fe5b146117f7576001600381111561144157fe5b81600381111561144d57fe5b14156114685781600401600081548092919060010191905055505b6002600381111561147557fe5b81600381111561148157fe5b141561149c5781600501600081548092919060010191905055505b600482600d01541415611686576000826005015483600401541115611523578260000160009054906101000a900473ffffffffffffffffffffffffffffffffffffffff1673ffffffffffffffffffffffffffffffffffffffff16905060018360060160006101000a81548160ff0219169083600381111561151957fe5b02179055506115e7565b82600401548360050154111561159b578260010160009054906101000a900473ffffffffffffffffffffffffffffffffffffffff1673ffffffffffffffffffffffffffffffffffffffff16905060028360060160006101000a81548160ff0219169083600381111561159157fe5b02179055506115e6565b6000809054906101000a900473ffffffffffffffffffffffffffffffffffffffff16905060038360060160006101000a81548160ff021916908360038111156115e057fe5b02179055505b5b600583600d01819055508073ffffffffffffffffffffffffffffffffffffffff166108fc84600301548560020154019081150290604051600060405180830381858888f19350505050158015611641573d6000803e3d6000fd5b5060016040518060400160405280601181526020017f5468652067616d65206973206f7665722e00000000000000000000000000000081525094509450505050611886565b60008090505b60038110156117045760008090505b60038110156116f65760008460070183600381106116b557fe5b0182600381106116c157fe5b602091828204019190066101000a81548160ff021916908360028111156116e457fe5b0217905550808060010191505061169b565b50808060010191505061168c565b5081600d0160008154809291906001019190505550600282600d015411156117515760028260060160016101000a81548160ff0219169083600281111561174757fe5b0217905550611778565b60018260060160016101000a81548160ff0219169083600281111561177257fe5b02179055505b7fd579003e80bc481e06d15c233fac97b17ae436b83a9528d2fb1469382c07a2548783600d015483604051808481526020018381526020018260038111156117bc57fe5b60ff168152602001935050505060405180910390a1600160405180606001604052806022815260200161256360229139935093505050611886565b61180082611a82565b3073ffffffffffffffffffffffffffffffffffffffff166118208361188e565b73ffffffffffffffffffffffffffffffffffffffff161415611847576118468783611b07565b5b60016040518060400160405280601181526020017f596f7572207475726e206973206f7665720000000000000000000000000000008152509350935050505b935093915050565b60006001600281111561189d57fe5b8260060160019054906101000a900460ff1660028111156118ba57fe5b14156118ec578160000160009054906101000a900473ffffffffffffffffffffffffffffffffffffffff16905061194c565b6002808111156118f857fe5b8260060160019054906101000a900460ff16600281111561191557fe5b1415611947578160010160009054906101000a900473ffffffffffffffffffffffffffffffffffffffff16905061194c565b600090505b919050565b60008061195d83611c80565b90506000600281111561196c57fe5b81600281111561197857fe5b146119ad576001600281111561198a57fe5b81600281111561199657fe5b146119a25760026119a5565b60015b915050611a7d565b6119b683611def565b9050600060028111156119c557fe5b8160028111156119d157fe5b14611a0657600160028111156119e357fe5b8160028111156119ef57fe5b146119fb5760026119fe565b60015b915050611a7d565b611a0f83611f5e565b905060006002811115611a1e57fe5b816002811115611a2a57fe5b14611a5f5760016002811115611a3c57fe5b816002811115611a4857fe5b14611a54576002611a57565b60015b915050611a7d565b611a68836121d6565b15611a77576003915050611a7d565b60009150505b919050565b60016002811115611a8f57fe5b8160060160019054906101000a900460ff166002811115611aac57fe5b1415611add5760028160060160016101000a81548160ff02191690836002811115611ad357fe5b0217905550611b04565b60018160060160016101000a81548160ff02191690836002811115611afe57fe5b02179055505b50565b6000611b11612272565b9050600060038281611b1f57fe5b069050600060038381611b2e57fe5b0490505b60006002811115611b3f57fe5b846007018360038110611b4e57fe5b018260038110611b5a57fe5b602091828204019190069054906101000a900460ff166002811115611b7b57fe5b14611ba957611b88612272565b925060038381611b9457fe5b06915060038381611ba157fe5b049050611b32565b8360060160019054906101000a900460ff16846007018360038110611bca57fe5b018260038110611bd657fe5b602091828204019190066101000a81548160ff02191690836002811115611bf957fe5b02179055507faa03b0eb53c70f6640eba4234ad2c58782c8927e7abf7d3a6e2c45d07ca9d58385308484604051808581526020018473ffffffffffffffffffffffffffffffffffffffff1673ffffffffffffffffffffffffffffffffffffffff16815260200183815260200182815260200194505050505060405180910390a15050505050565b600080600090505b60038160ff161015611de457828160ff1660038110611ca357fe5b6020020151600160038110611cb457fe5b60200201516002811115611cc457fe5b838260ff1660038110611cd357fe5b6020020151600060038110611ce457fe5b60200201516002811115611cf457fe5b148015611d5e5750828160ff1660038110611d0b57fe5b6020020151600260038110611d1c57fe5b60200201516002811115611d2c57fe5b838260ff1660038110611d3b57fe5b6020020151600160038110611d4c57fe5b60200201516002811115611d5c57fe5b145b8015611da5575060006002811115611d7257fe5b838260ff1660038110611d8157fe5b6020020151600060038110611d9257fe5b60200201516002811115611da257fe5b14155b15611dd757828160ff1660038110611db957fe5b6020020151600060038110611dca57fe5b6020020151915050611dea565b8080600101915050611c88565b50600090505b919050565b600080600090505b60038160ff161015611f535782600160038110611e1057fe5b60200201518160ff1660038110611e2357fe5b60200201516002811115611e3357fe5b83600060038110611e4057fe5b60200201518260ff1660038110611e5357fe5b60200201516002811115611e6357fe5b148015611ecd575082600260038110611e7857fe5b60200201518160ff1660038110611e8b57fe5b60200201516002811115611e9b57fe5b83600160038110611ea857fe5b60200201518260ff1660038110611ebb57fe5b60200201516002811115611ecb57fe5b145b8015611f14575060006002811115611ee157fe5b83600060038110611eee57fe5b60200201518260ff1660038110611f0157fe5b60200201516002811115611f1157fe5b14155b15611f465782600060038110611f2657fe5b60200201518160ff1660038110611f3957fe5b6020020151915050611f59565b8080600101915050611df7565b50600090505b919050565b600081600160038110611f6d57fe5b6020020151600160038110611f7e57fe5b60200201516002811115611f8e57fe5b82600060038110611f9b57fe5b6020020151600060038110611fac57fe5b60200201516002811115611fbc57fe5b148015612022575081600260038110611fd157fe5b6020020151600260038110611fe257fe5b60200201516002811115611ff257fe5b82600160038110611fff57fe5b602002015160016003811061201057fe5b6020020151600281111561202057fe5b145b801561206757506000600281111561203657fe5b8260006003811061204357fe5b602002015160006003811061205457fe5b6020020151600281111561206457fe5b14155b15612096578160006003811061207957fe5b602002015160006003811061208a57fe5b602002015190506121d1565b816001600381106120a357fe5b60200201516001600381106120b457fe5b602002015160028111156120c457fe5b826000600381106120d157fe5b60200201516002600381106120e257fe5b602002015160028111156120f257fe5b14801561215857508160026003811061210757fe5b602002015160006003811061211857fe5b6020020151600281111561212857fe5b8260016003811061213557fe5b602002015160016003811061214657fe5b6020020151600281111561215657fe5b145b801561219d57506000600281111561216c57fe5b8260006003811061217957fe5b602002015160026003811061218a57fe5b6020020151600281111561219a57fe5b14155b156121cc57816000600381106121af57fe5b60200201516002600381106121c057fe5b602002015190506121d1565b600090505b919050565b600080600090505b60038160ff1610156122675760008090505b60038160ff161015612259576000600281111561220957fe5b848360ff166003811061221857fe5b60200201518260ff166003811061222b57fe5b6020020151600281111561223b57fe5b141561224c5760009250505061226d565b80806001019150506121f0565b5080806001019150506121de565b50600190505b919050565b600080600090506000600a82604051602001808281526020019150506040516020818303038152906040528051906020012060001c816122ae57fe5b069050600182019150809250505090565b604051806102a00160405280600073ffffffffffffffffffffffffffffffffffffffff168152602001600073ffffffffffffffffffffffffffffffffffffffff168152602001600081526020016000815260200160008152602001600081526020016000600381111561232e57fe5b81526020016000600281111561234057fe5b815260200161234d6123bd565b8152602001600081526020016000815260200160008152602001600081525090565b82600381019282156123ac579160200282015b828111156123ab5782518290600361239b9291906123eb565b5091602001919060010190612382565b5b5090506123b9919061248d565b5090565b6040518061012001604052806003905b6123d56124b9565b8152602001906001900390816123cd5790505090565b826003601f0160209004810192821561247c5791602002820160005b8382111561244d57835183826101000a81548160ff0219169083600281111561242c57fe5b02179055509260200192600101602081600001049283019260010302612407565b801561247a5782816101000a81549060ff021916905560010160208160000104928301926001030261244d565b505b50905061248991906124db565b5090565b6124b691905b808211156124b257600081816124a9919061250b565b50600101612493565b5090565b90565b6040518060600160405280600390602082028038833980820191505090505090565b61250891905b8082111561250457600081816101000a81549060ff0219169055506001016124e1565b5090565b90565b506000905556fe496e76616c6964206d6f76652c2063686f6f736520616e6f746865722063656c6c4a6f696e656420617320706c61796572206f6e6520746f20706c617920776974682072616e646f6d206167656e742e4d61746368206f7665722c2070726f63656564696e6720746f206e657874206f6e654a6f696e656420617320706c617965722074776f2e20506c61796572206f6e652063616e206d616b6520746865206669727374206d6f76652ea165627a7a72305820023341507d27c256efa079c74933defd05f6fdad02c957e05efe79c4ee5766b70029",
  "source": "pragma solidity >=0.4.21 <0.6.0;\n\n\ncontract TicTacToe {\n    address payable owner;\n    enum Players { None, PlayerOne, PlayerTwo }\n    enum Winners { None, PlayerOne, PlayerTwo, Draw }\n\n    struct Game {\n        address playerOne;\n        address playerTwo;\n        uint256 playerOneStake;\n        uint256 playerTwoStake;\n        uint256 playerOneWins;\n        uint256 playerTwoWins;\n        Winners winner;\n        Players playerTurn;\n        Players[3][3] board;\n        uint256 threshold;\n        uint256 gameTime;\n        uint256 duration;\n        uint256 gameNo;\n    }\n    constructor () public {\n        owner = msg.sender;\n    }\n    mapping(uint256 => Game) public games;\n    uint256 public nrOfGames;\n\n    event GameCreated(uint256 gameId, address creator);\n    event PlayerJoinedGame(uint256 gameId, address player, uint8 playerNumber);\n    event PlayerMadeMove(uint256 gameId, address player, uint xCoordinate, uint yCoordinate);\n    event GameOver(uint256 gameId, Winners winner);\n    event SentMoney(uint256 money);\n    event gameDone(uint gameId, uint gameNo, Winners winner);\n    event TimedOut(uint256 duration, address player);\n    function newGame() public returns (uint256 gameId) {\n        require(msg.sender == owner, \"Only owner can create game!\");\n        Game memory game;\n        game.playerTurn = Players.PlayerOne;\n        game.threshold = 200;\n        game.gameTime = now;\n        game.gameNo = 1;\n        game.duration = 1000;\n        nrOfGames++;\n        games[nrOfGames] = game;\n        emit GameCreated(nrOfGames, msg.sender);\n        return nrOfGames;\n    }\n\n    function joinGame(uint256 _gameId, uint8 choice) public payable returns (bool success, string memory reason) {\n        require(_gameId <= nrOfGames && nrOfGames > 0, \"No such game exists\");    \n        Game storage game = games[_gameId];\n        require (msg.value >= game.threshold, \"Insufficient stake\");\n        require(msg.sender!=game.playerOne || msg.sender!=game.playerTwo, \"You are already in game\");\n        require(game.playerOne == address(0) || game.playerTwo == address(0), \"All seats taken\");\n        address player = msg.sender;\n        \n        emit SentMoney(game.threshold); \n\n        require(choice == 0 || choice == 1);\n\n        // Assign the new player to slot 1 if it is still available.\n        if (game.playerOne == address(0)) {\n            game.playerOne = player;\n            game.playerOneStake = msg.value;\n            emit PlayerJoinedGame(_gameId, player, uint8(Players.PlayerOne));\n\n            if (choice == 0){\n                game.playerTwo = address(this);\n                game.playerTwoStake = msg.value;\n                emit PlayerJoinedGame(_gameId, address(this), uint8(Players.PlayerTwo));\n                return (true, \"Joined as player one to play with random agent.\" );\n            }\n            return (true, \"Joined as player one.\");\n        }\n        if (game.playerTwo == address(0)) {\n            game.playerTwoStake = msg.value;\n            game.playerTwo = player;\n            emit PlayerJoinedGame(_gameId, player, uint8(Players.PlayerTwo));\n\n            return (true, \"Joined as player two. Player one can make the first move.\");\n        }\n        return (false, \"All seats taken.\");\n    }\n\n    \n    function makeMove(uint256 _gameId, uint _xCoordinate, uint _yCoordinate) public payable returns (bool success, string memory reason) {\n        require(_gameId <= nrOfGames && nrOfGames > 0, \"No such game exists\");    \n        Game storage game = games[_gameId];\n        require(game.winner == Winners.None, \"The game has already ended\");\n        if (now - game.gameTime > game.duration){\n            emit TimedOut(now - game.gameTime, getCurrentPlayer(game));\n            address payable player = address(uint256(getCurrentPlayer(game)));\n            player.transfer(game.playerOneStake + game.playerTwoStake);\n            return(false, \"Timed out\");\n        }\n        game.gameTime = now;\n        require(msg.sender == getCurrentPlayer(game), \"Not your turn\");\n        require(game.board[_xCoordinate][_yCoordinate] == Players.None, \"Invalid move, choose another cell\");\n\n        game.board[_xCoordinate][_yCoordinate] = game.playerTurn;\n        emit PlayerMadeMove(_gameId, msg.sender, _xCoordinate, _yCoordinate);\n\n        Winners winner = calculateWinner(game.board);\n        if (winner != Winners.None) {\n            if (winner == Winners.PlayerOne){\n                game.playerOneWins++;\n            }\n            if (winner == Winners.PlayerTwo){\n                game.playerTwoWins++;\n            }\n            \n             if(game.gameNo == 4){\n                address payable player;\n                if(game.playerOneWins > game.playerTwoWins){\n                    player = address(uint256(game.playerOne));\n                    game.winner = Winners.PlayerOne;\n                }\n                else if (game.playerTwoWins > game.playerOneWins){\n                    player = address(uint256(game.playerTwo));\n                    game.winner = Winners.PlayerTwo;\n                }\n                else {\n                    player = owner;\n                    game.winner = Winners.Draw;\n                }\n                game.gameNo = 5;\n                player.transfer(game.playerOneStake + game.playerTwoStake);\n                \n                return (true, \"The game is over.\");\n            }\n\n            else {\n                for(uint i = 0; i<3; i++){\n                    for(uint j = 0; j<3;j++){\n                        game.board[i][j] = Players.None;\n                    }\n                }\n                game.gameNo++;\n                if(game.gameNo > 2){\n                    game.playerTurn = Players.PlayerTwo;\n                }\n                else {\n                    game.playerTurn = Players.PlayerOne;\n                }\n                emit gameDone(_gameId, game.gameNo, winner);\n                return (true, \"Match over, proceeding to next one\");\n            }\n        }\n\n        // A move was made and there is no winner yet.\n        // The next player should make her move.\n        nextPlayer(game);\n        if (getCurrentPlayer(game) == address(this)){\n            makeRandomMove(_gameId, game);\n        }\n        return (true, \"Your turn is over\");\n    }\n\n    function genRandomNumber() private pure returns (uint256 number){\n        uint256 key = 0;\n        uint256 random = uint256(keccak256(abi.encode(key))) % 10;\n        key += 1;\n        return random;\n    }\n\n    function makeRandomMove(uint256 _gameId, Game storage game) private{\n        uint256 random = genRandomNumber();\n        uint256 x_coordinate = random%3;\n        uint256 y_coordinate = random/3;\n\n        while (game.board[x_coordinate][y_coordinate] != Players.None){ \n            random = genRandomNumber();\n            x_coordinate = random%3;\n            y_coordinate = random/3;\n        }    \n        game.board[x_coordinate][y_coordinate] = game.playerTurn;\n        emit PlayerMadeMove(_gameId, address(this), x_coordinate, y_coordinate);\n    }\n\n    // getCurrentPlayer returns the address of the player that should make the next move.\n    // Returns the `0x0` address if it is no player's turn.\n    function getCurrentPlayer(Game storage _game) private view returns (address player) {\n        if (_game.playerTurn == Players.PlayerOne) {\n            return _game.playerOne;\n        }\n\n        if (_game.playerTurn == Players.PlayerTwo) {\n            return _game.playerTwo;\n        }\n\n        return address(0);\n    }\n\n    // calculateWinner returns the winner on the given board.\n    // The returned winner can be `None` in which case there is no winner and no draw.\n    function calculateWinner(Players[3][3] memory _board) private pure returns (Winners winner) {\n        // First we check if there is a victory in a row.\n        // If so, convert `Players` to `Winners`\n        // Subsequently we do the same for columns and diagonals.\n        Players player = winnerInRow(_board);\n        if (player != Players.None) {\n            return player == Players.PlayerOne ? Winners.PlayerOne : Winners.PlayerTwo;\n        }\n        \n        player = winnerInColumn(_board);\n        if (player != Players.None) {\n            return player == Players.PlayerOne ? Winners.PlayerOne : Winners.PlayerTwo;\n        }\n\n        player = winnerInDiagonal(_board);\n        if (player != Players.None) {\n            return player == Players.PlayerOne ? Winners.PlayerOne : Winners.PlayerTwo;\n        }\n\n        // If there is no winner and no more space on the board,\n        // then it is a draw.\n        if (isBoardFull(_board)) {\n            return Winners.Draw;\n        }\n\n        return Winners.None;\n    }\n\n    // winnerInRow returns the player that wins in any row.\n    // To win in a row, all cells in the row must belong to the same player\n    // and that player must not be the `None` player.\n    function winnerInRow(Players[3][3] memory _board) private pure returns (Players winner) {\n        for (uint8 x = 0; x < 3; x++) {\n            if (\n                _board[x][0] == _board[x][1]\n                && _board[x][1]  == _board[x][2]\n                && _board[x][0] != Players.None\n            ) {\n                return _board[x][0];\n            }\n        }\n\n        return Players.None;\n    }\n\n    // winnerInColumn returns the player that wins in any column.\n    // To win in a column, all cells in the column must belong to the same player\n    // and that player must not be the `None` player.\n    function winnerInColumn(Players[3][3] memory _board) private pure returns (Players winner) {\n        for (uint8 y = 0; y < 3; y++) {\n            if (\n                _board[0][y] == _board[1][y]\n                && _board[1][y] == _board[2][y]\n                && _board[0][y] != Players.None\n            ) {\n                return _board[0][y];\n            }\n        }\n\n        return Players.None;\n    }\n\n    // winnerInDiagoral returns the player that wins in any diagonal.\n    // To win in a diagonal, all cells in the diaggonal must belong to the same player\n    // and that player must not be the `None` player.\n    function winnerInDiagonal(Players[3][3] memory _board) private pure returns (Players winner) {\n        if (\n            _board[0][0] == _board[1][1]\n            && _board[1][1] == _board[2][2]\n            && _board[0][0] != Players.None\n        ) {\n            return _board[0][0];\n        }\n\n        if (\n            _board[0][2] == _board[1][1]\n            && _board[1][1] == _board[2][0]\n            && _board[0][2] != Players.None\n        ) {\n            return _board[0][2];\n        }\n\n        return Players.None;\n    }\n\n    // isBoardFull returns true if all cells of the board belong to a player other\n    // than `None`.\n    function isBoardFull(Players[3][3] memory _board) private pure returns (bool isFull) {\n        for (uint8 x = 0; x < 3; x++) {\n            for (uint8 y = 0; y < 3; y++) {\n                if (_board[x][y] == Players.None) {\n                    return false;\n                }\n            }\n        }\n\n        return true;\n    }\n\n    // nextPlayer changes whose turn it is for the given `_game`.\n    function nextPlayer(Game storage _game) private {\n        if (_game.playerTurn == Players.PlayerOne) {\n            _game.playerTurn = Players.PlayerTwo;\n        } else {\n            _game.playerTurn = Players.PlayerOne;\n        }\n    }\n}\n\n//TimeOut\n//Multiple games",
  "sourcePath": "/home/samanvaya/courses/sem5/Blockchain/Assignment1/TicTacToe/contracts/TicTacToe.sol",
  "compiler": {
    "name": "solc",
    "version": "0.5.8+commit.23d335f2.Emscripten.clang"
  },
  "schemaVersion": "3.0.15",
  "updatedAt": "2019-09-16T17:58:30.123Z",
  "devdoc": {
    "methods": {}
  },
  "userdoc": {
    "methods": {}
  }
}