{
  "contractName": "TicTacToe",
  "abi": [
    {
      "anonymous": false,
      "inputs": [
        {
          "indexed": false,
          "name": "gameId",
          "type": "uint256"
        },
        {
          "indexed": false,
          "name": "creator",
          "type": "address"
        }
      ],
      "name": "GameCreated",
      "type": "event"
    },
    {
      "anonymous": false,
      "inputs": [
        {
          "indexed": false,
          "name": "gameId",
          "type": "uint256"
        },
        {
          "indexed": false,
          "name": "player",
          "type": "address"
        },
        {
          "indexed": false,
          "name": "playerNumber",
          "type": "uint8"
        }
      ],
      "name": "PlayerJoinedGame",
      "type": "event"
    },
    {
      "anonymous": false,
      "inputs": [
        {
          "indexed": false,
          "name": "gameId",
          "type": "uint256"
        },
        {
          "indexed": false,
          "name": "player",
          "type": "address"
        },
        {
          "indexed": false,
          "name": "xCoordinate",
          "type": "uint256"
        },
        {
          "indexed": false,
          "name": "yCoordinate",
          "type": "uint256"
        }
      ],
      "name": "PlayerMadeMove",
      "type": "event"
    },
    {
      "anonymous": false,
      "inputs": [
        {
          "indexed": false,
          "name": "gameId",
          "type": "uint256"
        },
        {
          "indexed": false,
          "name": "winner",
          "type": "uint8"
        }
      ],
      "name": "GameOver",
      "type": "event"
    },
    {
      "anonymous": false,
      "inputs": [
        {
          "indexed": false,
          "name": "money",
          "type": "uint256"
        }
      ],
      "name": "SentMoney",
      "type": "event"
    },
    {
      "constant": false,
      "inputs": [],
      "name": "newGame",
      "outputs": [
        {
          "name": "gameId",
          "type": "uint256"
        }
      ],
      "payable": false,
      "stateMutability": "nonpayable",
      "type": "function"
    },
    {
      "constant": false,
      "inputs": [
        {
          "name": "_gameId",
          "type": "uint256"
        },
        {
          "name": "choice",
          "type": "uint8"
        }
      ],
      "name": "joinGame",
      "outputs": [
        {
          "name": "success",
          "type": "bool"
        },
        {
          "name": "reason",
          "type": "string"
        }
      ],
      "payable": true,
      "stateMutability": "payable",
      "type": "function"
    },
    {
      "constant": false,
      "inputs": [
        {
          "name": "_gameId",
          "type": "uint256"
        },
        {
          "name": "_xCoordinate",
          "type": "uint256"
        },
        {
          "name": "_yCoordinate",
          "type": "uint256"
        }
      ],
      "name": "makeMove",
      "outputs": [
        {
          "name": "success",
          "type": "bool"
        },
        {
          "name": "reason",
          "type": "string"
        }
      ],
      "payable": true,
      "stateMutability": "payable",
      "type": "function"
    }
  ],
  "bytecode": "0x608060405234801561001057600080fd5b50611a8c806100206000396000f3fe6080604052600436106100345760003560e01c80637d03f5f314610039578063ca6649c514610064578063cfc2f5ff14610123575b600080fd5b34801561004557600080fd5b5061004e6101e9565b6040518082815260200191505060405180910390f35b61009d6004803603604081101561007a57600080fd5b8101908080359060200190929190803560ff1690602001909291905050506103c3565b604051808315151515815260200180602001828103825283818151815260200191508051906020019080838360005b838110156100e75780820151818401526020810190506100cc565b50505050905090810190601f1680156101145780820380516001836020036101000a031916815260200191505b50935050505060405180910390f35b6101636004803603606081101561013957600080fd5b810190808035906020019092919080359060200190929190803590602001909291905050506107e9565b604051808315151515815260200180602001828103825283818151815260200191508051906020019080838360005b838110156101ad578082015181840152602081019050610192565b50505050905090810190601f1680156101da5780820380516001836020036101000a031916815260200191505b50935050505060405180910390f35b60006101f36117d4565b60018160600190600281111561020557fe5b9081600281111561021257fe5b8152505060c88160a001818152505060016000815480929190600101919050555080600080600154815260200190815260200160002060008201518160000160006101000a81548173ffffffffffffffffffffffffffffffffffffffff021916908373ffffffffffffffffffffffffffffffffffffffff16021790555060208201518160010160006101000a81548173ffffffffffffffffffffffffffffffffffffffff021916908373ffffffffffffffffffffffffffffffffffffffff16021790555060408201518160010160146101000a81548160ff021916908360038111156102fa57fe5b021790555060608201518160010160156101000a81548160ff0219169083600281111561032357fe5b021790555060808201518160020190600361033f929190611853565b5060a082015181600501559050507fc3e0f84839dc888c892a013d10c8f9d6dc05a21a879d0ce468ca558013e9121c60015433604051808381526020018273ffffffffffffffffffffffffffffffffffffffff1673ffffffffffffffffffffffffffffffffffffffff1681526020019250505060405180910390a160015491505090565b6000606060008060008681526020019081526020016000209050600033905060015486111561042f5760006040518060400160405280601481526020017f4e6f20737563682067616d65206578697374732e0000000000000000000000008152509350935050506107e2565b816005015434101561044057600080fd5b346002600082825401925050819055507f1e01c8d258ea60a59bd755ea561a66d21aa15e95a3380e3389ca549d8ccba43182600501546040518082815260200191505060405180910390a160008560ff1614806104a0575060018560ff16145b6104a957600080fd5b600073ffffffffffffffffffffffffffffffffffffffff168260000160009054906101000a900473ffffffffffffffffffffffffffffffffffffffff1673ffffffffffffffffffffffffffffffffffffffff16141561065d57808260000160006101000a81548173ffffffffffffffffffffffffffffffffffffffff021916908373ffffffffffffffffffffffffffffffffffffffff1602179055507f8f5866c09e99941481e2be79d3a7698371543fe3ad3387b903553fd6043e855086826001600281111561057557fe5b604051808481526020018373ffffffffffffffffffffffffffffffffffffffff1673ffffffffffffffffffffffffffffffffffffffff1681526020018260ff1660ff168152602001935050505060405180910390a160008560ff16141561061a57308260010160006101000a81548173ffffffffffffffffffffffffffffffffffffffff021916908373ffffffffffffffffffffffffffffffffffffffff1602179055505b60016040518060400160405280601581526020017f4a6f696e656420617320706c61796572206f6e652e00000000000000000000008152509350935050506107e2565b600073ffffffffffffffffffffffffffffffffffffffff168260010160009054906101000a900473ffffffffffffffffffffffffffffffffffffffff1673ffffffffffffffffffffffffffffffffffffffff1614156107a357808260010160006101000a81548173ffffffffffffffffffffffffffffffffffffffff021916908373ffffffffffffffffffffffffffffffffffffffff1602179055507f8f5866c09e99941481e2be79d3a7698371543fe3ad3387b903553fd6043e8550868260028081111561072857fe5b604051808481526020018373ffffffffffffffffffffffffffffffffffffffff1673ffffffffffffffffffffffffffffffffffffffff1681526020018260ff1660ff168152602001935050505060405180910390a16001604051806060016040528060398152602001611a28603991399350935050506107e2565b60006040518060400160405280601081526020017f416c6c2073656174732074616b656e2e000000000000000000000000000000008152509350935050505b9250929050565b600060606001548511156108385760006040518060400160405280601481526020017f4e6f20737563682067616d65206578697374732e00000000000000000000000081525091509150610d9b565b600080600087815260200190815260200160002090506000600381111561085b57fe5b8160010160149054906101000a900460ff16600381111561087857fe5b146108bf5760006040518060400160405280601b81526020017f5468652067616d652068617320616c726561647920656e6465642e00000000008152509250925050610d9b565b6108c881610da3565b73ffffffffffffffffffffffffffffffffffffffff163373ffffffffffffffffffffffffffffffffffffffff161461093c5760006040518060400160405280601481526020017f4974206973206e6f7420796f7572207475726e2e0000000000000000000000008152509250925050610d9b565b6000600281111561094957fe5b81600201866003811061095857fe5b01856003811061096457fe5b602091828204019190069054906101000a900460ff16600281111561098557fe5b146109af5760006040518060600160405280603181526020016119f7603191399250925050610d9b565b8060010160159054906101000a900460ff168160020186600381106109d057fe5b0185600381106109dc57fe5b602091828204019190066101000a81548160ff021916908360028111156109ff57fe5b02179055507faa03b0eb53c70f6640eba4234ad2c58782c8927e7abf7d3a6e2c45d07ca9d58386338787604051808581526020018473ffffffffffffffffffffffffffffffffffffffff1673ffffffffffffffffffffffffffffffffffffffff16815260200183815260200182815260200194505050505060405180910390a16000610b2c82600201600380602002604051908101604052809291906000905b82821015610b2357838201600380602002604051908101604052809291908260038015610b0f576020028201916000905b82829054906101000a900460ff166002811115610ae957fe5b81526020019060010190602082600001049283019260010382029150808411610ad05790505b505050505081526020019060010190610a9f565b50505050610e66565b905060006003811115610b3b57fe5b816003811115610b4757fe5b14610d0c57808260010160146101000a81548160ff02191690836003811115610b6c57fe5b0217905550600060016003811115610b8057fe5b826003811115610b8c57fe5b1415610bd0578260000160009054906101000a900473ffffffffffffffffffffffffffffffffffffffff1673ffffffffffffffffffffffffffffffffffffffff1690505b60026003811115610bdd57fe5b826003811115610be957fe5b1415610c2d578260000160009054906101000a900473ffffffffffffffffffffffffffffffffffffffff1673ffffffffffffffffffffffffffffffffffffffff1690505b8073ffffffffffffffffffffffffffffffffffffffff166108fc84600501546002029081150290604051600060405180830381858888f19350505050158015610c7a573d6000803e3d6000fd5b507f132b564c6f96092065580fd28989d181dfbbfe4aa2fb7fb1eda8af68ba3073e0888360405180838152602001826003811115610cb457fe5b60ff1681526020019250505060405180910390a160016040518060400160405280601181526020017f5468652067616d65206973206f7665722e00000000000000000000000000000081525094509450505050610d9b565b610d1582610f97565b3073ffffffffffffffffffffffffffffffffffffffff16610d3583610da3565b73ffffffffffffffffffffffffffffffffffffffff161415610d5c57610d5b878361101c565b5b60016040518060400160405280601181526020017f596f7572207475726e206973206f7665720000000000000000000000000000008152509350935050505b935093915050565b600060016002811115610db257fe5b8260010160159054906101000a900460ff166002811115610dcf57fe5b1415610e01578160000160009054906101000a900473ffffffffffffffffffffffffffffffffffffffff169050610e61565b600280811115610e0d57fe5b8260010160159054906101000a900460ff166002811115610e2a57fe5b1415610e5c578160010160009054906101000a900473ffffffffffffffffffffffffffffffffffffffff169050610e61565b600090505b919050565b600080610e7283611195565b905060006002811115610e8157fe5b816002811115610e8d57fe5b14610ec25760016002811115610e9f57fe5b816002811115610eab57fe5b14610eb7576002610eba565b60015b915050610f92565b610ecb83611304565b905060006002811115610eda57fe5b816002811115610ee657fe5b14610f1b5760016002811115610ef857fe5b816002811115610f0457fe5b14610f10576002610f13565b60015b915050610f92565b610f2483611473565b905060006002811115610f3357fe5b816002811115610f3f57fe5b14610f745760016002811115610f5157fe5b816002811115610f5d57fe5b14610f69576002610f6c565b60015b915050610f92565b610f7d836116eb565b15610f8c576003915050610f92565b60009150505b919050565b60016002811115610fa457fe5b8160010160159054906101000a900460ff166002811115610fc157fe5b1415610ff25760028160010160156101000a81548160ff02191690836002811115610fe857fe5b0217905550611019565b60018160010160156101000a81548160ff0219169083600281111561101357fe5b02179055505b50565b6000611026611787565b905060006003828161103457fe5b06905060006003838161104357fe5b0490505b6000600281111561105457fe5b84600201836003811061106357fe5b01826003811061106f57fe5b602091828204019190069054906101000a900460ff16600281111561109057fe5b146110be5761109d611787565b9250600383816110a957fe5b069150600383816110b657fe5b049050611047565b8360010160159054906101000a900460ff168460020183600381106110df57fe5b0182600381106110eb57fe5b602091828204019190066101000a81548160ff0219169083600281111561110e57fe5b02179055507faa03b0eb53c70f6640eba4234ad2c58782c8927e7abf7d3a6e2c45d07ca9d58385308484604051808581526020018473ffffffffffffffffffffffffffffffffffffffff1673ffffffffffffffffffffffffffffffffffffffff16815260200183815260200182815260200194505050505060405180910390a15050505050565b600080600090505b60038160ff1610156112f957828160ff16600381106111b857fe5b60200201516001600381106111c957fe5b602002015160028111156111d957fe5b838260ff16600381106111e857fe5b60200201516000600381106111f957fe5b6020020151600281111561120957fe5b1480156112735750828160ff166003811061122057fe5b602002015160026003811061123157fe5b6020020151600281111561124157fe5b838260ff166003811061125057fe5b602002015160016003811061126157fe5b6020020151600281111561127157fe5b145b80156112ba57506000600281111561128757fe5b838260ff166003811061129657fe5b60200201516000600381106112a757fe5b602002015160028111156112b757fe5b14155b156112ec57828160ff16600381106112ce57fe5b60200201516000600381106112df57fe5b60200201519150506112ff565b808060010191505061119d565b50600090505b919050565b600080600090505b60038160ff161015611468578260016003811061132557fe5b60200201518160ff166003811061133857fe5b6020020151600281111561134857fe5b8360006003811061135557fe5b60200201518260ff166003811061136857fe5b6020020151600281111561137857fe5b1480156113e257508260026003811061138d57fe5b60200201518160ff16600381106113a057fe5b602002015160028111156113b057fe5b836001600381106113bd57fe5b60200201518260ff16600381106113d057fe5b602002015160028111156113e057fe5b145b80156114295750600060028111156113f657fe5b8360006003811061140357fe5b60200201518260ff166003811061141657fe5b6020020151600281111561142657fe5b14155b1561145b578260006003811061143b57fe5b60200201518160ff166003811061144e57fe5b602002015191505061146e565b808060010191505061130c565b50600090505b919050565b60008160016003811061148257fe5b602002015160016003811061149357fe5b602002015160028111156114a357fe5b826000600381106114b057fe5b60200201516000600381106114c157fe5b602002015160028111156114d157fe5b1480156115375750816002600381106114e657fe5b60200201516002600381106114f757fe5b6020020151600281111561150757fe5b8260016003811061151457fe5b602002015160016003811061152557fe5b6020020151600281111561153557fe5b145b801561157c57506000600281111561154b57fe5b8260006003811061155857fe5b602002015160006003811061156957fe5b6020020151600281111561157957fe5b14155b156115ab578160006003811061158e57fe5b602002015160006003811061159f57fe5b602002015190506116e6565b816001600381106115b857fe5b60200201516001600381106115c957fe5b602002015160028111156115d957fe5b826000600381106115e657fe5b60200201516002600381106115f757fe5b6020020151600281111561160757fe5b14801561166d57508160026003811061161c57fe5b602002015160006003811061162d57fe5b6020020151600281111561163d57fe5b8260016003811061164a57fe5b602002015160016003811061165b57fe5b6020020151600281111561166b57fe5b145b80156116b257506000600281111561168157fe5b8260006003811061168e57fe5b602002015160026003811061169f57fe5b602002015160028111156116af57fe5b14155b156116e157816000600381106116c457fe5b60200201516002600381106116d557fe5b602002015190506116e6565b600090505b919050565b600080600090505b60038160ff16101561177c5760008090505b60038160ff16101561176e576000600281111561171e57fe5b848360ff166003811061172d57fe5b60200201518260ff166003811061174057fe5b6020020151600281111561175057fe5b141561176157600092505050611782565b8080600101915050611705565b5080806001019150506116f3565b50600190505b919050565b600080600090506000600a82604051602001808281526020019150506040516020818303038152906040528051906020012060001c816117c357fe5b069050600182019150809250505090565b604051806101c00160405280600073ffffffffffffffffffffffffffffffffffffffff168152602001600073ffffffffffffffffffffffffffffffffffffffff1681526020016000600381111561182757fe5b81526020016000600281111561183957fe5b81526020016118466118a1565b8152602001600081525090565b8260038101928215611890579160200282015b8281111561188f5782518290600361187f9291906118cf565b5091602001919060010190611866565b5b50905061189d9190611971565b5090565b6040518061012001604052806003905b6118b961199d565b8152602001906001900390816118b15790505090565b826003601f016020900481019282156119605791602002820160005b8382111561193157835183826101000a81548160ff0219169083600281111561191057fe5b021790555092602001926001016020816000010492830192600103026118eb565b801561195e5782816101000a81549060ff0219169055600101602081600001049283019260010302611931565b505b50905061196d91906119bf565b5090565b61199a91905b80821115611996576000818161198d91906119ef565b50600101611977565b5090565b90565b6040518060600160405280600390602082028038833980820191505090505090565b6119ec91905b808211156119e857600081816101000a81549060ff0219169055506001016119c5565b5090565b90565b506000905556fe546865726520697320616c72656164792061206d61726b2061742074686520676976656e20636f6f7264696e617465732e4a6f696e656420617320706c617965722074776f2e20506c61796572206f6e652063616e206d616b6520746865206669727374206d6f76652ea165627a7a723058203fd19e30e6fe0c42e6d697d1622c39815a499807bbf1b79141470009ee69390e0029",
  "source": "pragma solidity >=0.4.21 <0.6.0;\n\n\n// TicTacToe is a solidity implementation of the tic tac toe game.\n// You can find the rules at https://en.wikipedia.org/wiki/Tic-tac-toe\ncontract TicTacToe {\n\n    // Players enumerates all possible players\n    enum Players { None, PlayerOne, PlayerTwo }\n    // Winners enumerates all possible winners\n    enum Winners { None, PlayerOne, PlayerTwo, Draw }\n\n    // Game stores the state of a round of tic tac toe.\n    // As long as `winner` is `None`, the game is not over.\n    // `playerTurn` defines who may go next.\n    // Player one must make the first move.\n    // The `board` has the size 3x3 and in each cell, a player\n    // can be listed. Initializes as `None` player, as that is the\n    // first element in the enumeration.\n    // That means that players are free to fill in any cell at the\n    // start of the game.\n    struct Game {\n        address playerOne;\n        address playerTwo;\n        Winners winner;\n        Players playerTurn;\n        Players[3][3] board;\n        uint256 threshold;\n    }\n\n    // games stores all the games.\n    // Games that are already over as well as games that are still running.\n    // It is possible to iterate over all games, as the keys of the mapping\n    // are known to be the integers from `1` to `nrOfGames`.\n     mapping(uint256 => Game) private games;\n    // nrOfGames stores the total number of games in this contract.\n    uint256 private nrOfGames;\n    uint256 private balance;\n\n    // GameCreated signals that `creator` created a new game with this `gameId`.\n    event GameCreated(uint256 gameId, address creator);\n    // PlayerJoinedGame signals that `player` joined the game with the id `gameId`.\n    // That player has the player number `playerNumber` in that game.\n    event PlayerJoinedGame(uint256 gameId, address player, uint8 playerNumber);\n    // PlayerMadeMove signals that `player` filled in the board of the game with\n    // the id `gameId`. She did so at the coordinates `xCoordinate`, `yCoordinate`.\n    event PlayerMadeMove(uint256 gameId, address player, uint xCoordinate, uint yCoordinate);\n    // GameOver signals that the game with the id `gameId` is over.\n    // The winner is indicated by `winner`. No more moves are allowed in this game.\n    event GameOver(uint256 gameId, Winners winner);\n    event SentMoney(uint256 money);\n\n    // newGame creates a new game and returns the new game's `gameId`.\n    // The `gameId` is required in subsequent calls to identify the game.\n    function newGame() public returns (uint256 gameId) {\n        Game memory game;\n        game.playerTurn = Players.PlayerOne;\n        game.threshold = 200;\n\n        nrOfGames++;\n        games[nrOfGames] = game;\n        emit GameCreated(nrOfGames, msg.sender);\n\n        return nrOfGames;\n    }\n\n    // joinGame lets the sender of the message join the game with the id `gameId`.\n    // It returns `success = true` when joining the game was possible and\n    // `false` otherwise.\n    // `reason` indicates why a game was joined or not joined.\n    function joinGame(uint256 _gameId, uint8 choice) public payable returns (bool success, string memory reason) {\n        Game storage game = games[_gameId];\n        address player = msg.sender;\n        // emit PlayerJoinedGame(_gameId, player, uint8(Players.PlayerOne));\n        if (_gameId > nrOfGames) {\n            return (false, \"No such game exists.\");\n        }\n\n        require (msg.value >= game.threshold);\n        balance += msg.value;\n        emit SentMoney(game.threshold); \n\n        require(choice == 0 || choice == 1);\n\n        // Assign the new player to slot 1 if it is still available.\n        if (game.playerOne == address(0)) {\n            game.playerOne = player;\n            emit PlayerJoinedGame(_gameId, player, uint8(Players.PlayerOne));\n\n            if (choice == 0){\n                game.playerTwo = address(this);\n            }\n            return (true, \"Joined as player one.\");\n        }\n\n        // If slot 1 is taken, assign the new player to slot 2 if it is still available.\n        if (game.playerTwo == address(0)) {\n            game.playerTwo = player;\n            emit PlayerJoinedGame(_gameId, player, uint8(Players.PlayerTwo));\n\n            return (true, \"Joined as player two. Player one can make the first move.\");\n        }\n\n        return (false, \"All seats taken.\");\n    }\n\n    // makeMove inserts a player on the game board.\n    // The player is identified as the sender of the message.\n    function makeMove(uint256 _gameId, uint _xCoordinate, uint _yCoordinate) public payable returns (bool success, string memory reason) {\n        if (_gameId > nrOfGames) {\n            return (false, \"No such game exists.\");\n        }\n\n        Game storage game = games[_gameId];\n\n        // Any winner other than `None` means that no more moves are allowed.\n        if (game.winner != Winners.None) {\n            return (false, \"The game has already ended.\");\n        }\n\n        // Only the player whose turn it is may make a move.\n        if (msg.sender != getCurrentPlayer(game)) {\n            // TODO: what if the player is not present in the game at all?\n            return (false, \"It is not your turn.\");\n        }\n\n        // Players can only make moves in cells on the board that have not been played before.\n        if (game.board[_xCoordinate][_yCoordinate] != Players.None) {\n            return (false, \"There is already a mark at the given coordinates.\");\n        }\n\n        // Now the move is recorded and the according event emitted.\n        game.board[_xCoordinate][_yCoordinate] = game.playerTurn;\n        emit PlayerMadeMove(_gameId, msg.sender, _xCoordinate, _yCoordinate);\n\n        // Check if there is a winner now that we have a new move.\n        Winners winner = calculateWinner(game.board);\n        if (winner != Winners.None) {\n            // If there is a winner (can be a `Draw`) it must be recorded in the game and\n            // the corresponding event must be emitted.\n            game.winner = winner;\n            address payable player;\n            if (winner == Winners.PlayerOne){\n                player = address(uint256(game.playerOne));\n            }\n            if (winner == Winners.PlayerTwo){\n                player = address(uint256(game.playerOne));\n            }\n            player.transfer(2*game.threshold);\n\n            emit GameOver(_gameId, winner);\n\n            return (true, \"The game is over.\");\n        }\n\n        // A move was made and there is no winner yet.\n        // The next player should make her move.\n        nextPlayer(game);\n        if (getCurrentPlayer(game) == address(this)){\n            makeRandomMove(_gameId, game);\n        }\n        return (true, \"Your turn is over\");\n    }\n\n    function genRandomNumber() private pure returns (uint256 number){\n        uint256 key = 0;\n        uint256 random = uint256(keccak256(abi.encode(key))) % 10;\n        key += 1;\n        return random;\n    }\n    function makeRandomMove(uint256 _gameId, Game storage game) private{\n        uint256 random = genRandomNumber();\n        uint256 x_coordinate = random%3;\n        uint256 y_coordinate = random/3;\n\n        while (game.board[x_coordinate][y_coordinate] != Players.None){ \n            random = genRandomNumber();\n            x_coordinate = random%3;\n            y_coordinate = random/3;\n        }    \n        game.board[x_coordinate][y_coordinate] = game.playerTurn;\n        emit PlayerMadeMove(_gameId, address(this), x_coordinate, y_coordinate);\n    }\n\n    // getCurrentPlayer returns the address of the player that should make the next move.\n    // Returns the `0x0` address if it is no player's turn.\n    function getCurrentPlayer(Game storage _game) private view returns (address player) {\n        if (_game.playerTurn == Players.PlayerOne) {\n            return _game.playerOne;\n        }\n\n        if (_game.playerTurn == Players.PlayerTwo) {\n            return _game.playerTwo;\n        }\n\n        return address(0);\n    }\n\n    // calculateWinner returns the winner on the given board.\n    // The returned winner can be `None` in which case there is no winner and no draw.\n    function calculateWinner(Players[3][3] memory _board) private pure returns (Winners winner) {\n        // First we check if there is a victory in a row.\n        // If so, convert `Players` to `Winners`\n        // Subsequently we do the same for columns and diagonals.\n        Players player = winnerInRow(_board);\n        if (player != Players.None) {\n            return player == Players.PlayerOne ? Winners.PlayerOne : Winners.PlayerTwo;\n        }\n        \n        player = winnerInColumn(_board);\n        if (player != Players.None) {\n            return player == Players.PlayerOne ? Winners.PlayerOne : Winners.PlayerTwo;\n        }\n\n        player = winnerInDiagonal(_board);\n        if (player != Players.None) {\n            return player == Players.PlayerOne ? Winners.PlayerOne : Winners.PlayerTwo;\n        }\n\n        // If there is no winner and no more space on the board,\n        // then it is a draw.\n        if (isBoardFull(_board)) {\n            return Winners.Draw;\n        }\n\n        return Winners.None;\n    }\n\n    // winnerInRow returns the player that wins in any row.\n    // To win in a row, all cells in the row must belong to the same player\n    // and that player must not be the `None` player.\n    function winnerInRow(Players[3][3] memory _board) private pure returns (Players winner) {\n        for (uint8 x = 0; x < 3; x++) {\n            if (\n                _board[x][0] == _board[x][1]\n                && _board[x][1]  == _board[x][2]\n                && _board[x][0] != Players.None\n            ) {\n                return _board[x][0];\n            }\n        }\n\n        return Players.None;\n    }\n\n    // winnerInColumn returns the player that wins in any column.\n    // To win in a column, all cells in the column must belong to the same player\n    // and that player must not be the `None` player.\n    function winnerInColumn(Players[3][3] memory _board) private pure returns (Players winner) {\n        for (uint8 y = 0; y < 3; y++) {\n            if (\n                _board[0][y] == _board[1][y]\n                && _board[1][y] == _board[2][y]\n                && _board[0][y] != Players.None\n            ) {\n                return _board[0][y];\n            }\n        }\n\n        return Players.None;\n    }\n\n    // winnerInDiagoral returns the player that wins in any diagonal.\n    // To win in a diagonal, all cells in the diaggonal must belong to the same player\n    // and that player must not be the `None` player.\n    function winnerInDiagonal(Players[3][3] memory _board) private pure returns (Players winner) {\n        if (\n            _board[0][0] == _board[1][1]\n            && _board[1][1] == _board[2][2]\n            && _board[0][0] != Players.None\n        ) {\n            return _board[0][0];\n        }\n\n        if (\n            _board[0][2] == _board[1][1]\n            && _board[1][1] == _board[2][0]\n            && _board[0][2] != Players.None\n        ) {\n            return _board[0][2];\n        }\n\n        return Players.None;\n    }\n\n    // isBoardFull returns true if all cells of the board belong to a player other\n    // than `None`.\n    function isBoardFull(Players[3][3] memory _board) private pure returns (bool isFull) {\n        for (uint8 x = 0; x < 3; x++) {\n            for (uint8 y = 0; y < 3; y++) {\n                if (_board[x][y] == Players.None) {\n                    return false;\n                }\n            }\n        }\n\n        return true;\n    }\n\n    // nextPlayer changes whose turn it is for the given `_game`.\n    function nextPlayer(Game storage _game) private {\n        if (_game.playerTurn == Players.PlayerOne) {\n            _game.playerTurn = Players.PlayerTwo;\n        } else {\n            _game.playerTurn = Players.PlayerOne;\n        }\n    }\n}\n\n//TimeOut\n//SendMoney\n//RecieveMoney\n//CheckThreshold\n//RandomPlayer",
  "sourcePath": "/home/samanvaya/courses/sem5/Blockchain/Assignment1/TicTacToe/contracts/TicTacToe.sol",
  "compiler": {
    "name": "solc",
    "version": "0.5.8+commit.23d335f2.Emscripten.clang"
  },
  "schemaVersion": "3.0.15",
  "updatedAt": "2019-09-15T12:35:02.349Z",
  "devdoc": {
    "methods": {}
  },
  "userdoc": {
    "methods": {}
  }
}